{
  "contractName": "PawnWars",
  "abi": [
    {
      "anonymous": false,
      "inputs": [
        {
          "indexed": true,
          "internalType": "uint256",
          "name": "itemId",
          "type": "uint256"
        },
        {
          "indexed": true,
          "internalType": "address",
          "name": "nftContract",
          "type": "address"
        },
        {
          "indexed": true,
          "internalType": "uint256",
          "name": "tokenId",
          "type": "uint256"
        },
        {
          "indexed": false,
          "internalType": "address",
          "name": "seller",
          "type": "address"
        },
        {
          "indexed": false,
          "internalType": "address",
          "name": "owner",
          "type": "address"
        },
        {
          "indexed": false,
          "internalType": "uint256",
          "name": "price",
          "type": "uint256"
        },
        {
          "indexed": false,
          "internalType": "bool",
          "name": "sold",
          "type": "bool"
        }
      ],
      "name": "MarketItemCreated",
      "type": "event"
    },
    {
      "inputs": [
        {
          "internalType": "address",
          "name": "nftContract",
          "type": "address"
        },
        {
          "internalType": "uint256",
          "name": "tokenId",
          "type": "uint256"
        },
        {
          "internalType": "uint256",
          "name": "price",
          "type": "uint256"
        }
      ],
      "name": "createMarketItem",
      "outputs": [],
      "stateMutability": "payable",
      "type": "function",
      "payable": true
    },
    {
      "inputs": [
        {
          "internalType": "address",
          "name": "nftContract",
          "type": "address"
        },
        {
          "internalType": "uint256",
          "name": "itemId",
          "type": "uint256"
        }
      ],
      "name": "createMarketSale",
      "outputs": [],
      "stateMutability": "payable",
      "type": "function",
      "payable": true
    },
    {
      "inputs": [
        {
          "internalType": "address",
          "name": "user",
          "type": "address"
        }
      ],
      "name": "fetchItemsCreated",
      "outputs": [
        {
          "components": [
            {
              "internalType": "uint256",
              "name": "itemId",
              "type": "uint256"
            },
            {
              "internalType": "address",
              "name": "nftContract",
              "type": "address"
            },
            {
              "internalType": "uint256",
              "name": "tokenId",
              "type": "uint256"
            },
            {
              "internalType": "address payable",
              "name": "seller",
              "type": "address"
            },
            {
              "internalType": "address payable",
              "name": "owner",
              "type": "address"
            },
            {
              "internalType": "uint256",
              "name": "price",
              "type": "uint256"
            },
            {
              "internalType": "bool",
              "name": "sold",
              "type": "bool"
            }
          ],
          "internalType": "struct PawnWarsMarket.MarketItem[]",
          "name": "",
          "type": "tuple[]"
        }
      ],
      "stateMutability": "view",
      "type": "function",
      "constant": true
    },
    {
      "inputs": [],
      "name": "fetchMarketItems",
      "outputs": [
        {
          "components": [
            {
              "internalType": "uint256",
              "name": "itemId",
              "type": "uint256"
            },
            {
              "internalType": "address",
              "name": "nftContract",
              "type": "address"
            },
            {
              "internalType": "uint256",
              "name": "tokenId",
              "type": "uint256"
            },
            {
              "internalType": "address payable",
              "name": "seller",
              "type": "address"
            },
            {
              "internalType": "address payable",
              "name": "owner",
              "type": "address"
            },
            {
              "internalType": "uint256",
              "name": "price",
              "type": "uint256"
            },
            {
              "internalType": "bool",
              "name": "sold",
              "type": "bool"
            }
          ],
          "internalType": "struct PawnWarsMarket.MarketItem[]",
          "name": "",
          "type": "tuple[]"
        }
      ],
      "stateMutability": "view",
      "type": "function",
      "constant": true
    },
    {
      "inputs": [
        {
          "internalType": "address",
          "name": "user",
          "type": "address"
        }
      ],
      "name": "fetchMyNFTs",
      "outputs": [
        {
          "components": [
            {
              "internalType": "uint256",
              "name": "itemId",
              "type": "uint256"
            },
            {
              "internalType": "address",
              "name": "nftContract",
              "type": "address"
            },
            {
              "internalType": "uint256",
              "name": "tokenId",
              "type": "uint256"
            },
            {
              "internalType": "address payable",
              "name": "seller",
              "type": "address"
            },
            {
              "internalType": "address payable",
              "name": "owner",
              "type": "address"
            },
            {
              "internalType": "uint256",
              "name": "price",
              "type": "uint256"
            },
            {
              "internalType": "bool",
              "name": "sold",
              "type": "bool"
            }
          ],
          "internalType": "struct PawnWarsMarket.MarketItem[]",
          "name": "",
          "type": "tuple[]"
        }
      ],
      "stateMutability": "view",
      "type": "function",
      "constant": true
    },
    {
      "inputs": [],
      "name": "getListingPrice",
      "outputs": [
        {
          "internalType": "uint256",
          "name": "",
          "type": "uint256"
        }
      ],
      "stateMutability": "view",
      "type": "function",
      "constant": true
    },
    {
      "inputs": [
        {
          "internalType": "string",
          "name": "roomID",
          "type": "string"
        }
      ],
      "name": "setid",
      "outputs": [],
      "stateMutability": "nonpayable",
      "type": "function"
    },
    {
      "inputs": [
        {
          "internalType": "string",
          "name": "roomID",
          "type": "string"
        }
      ],
      "name": "getid",
      "outputs": [
        {
          "internalType": "uint256",
          "name": "",
          "type": "uint256"
        }
      ],
      "stateMutability": "view",
      "type": "function",
      "constant": true
    },
    {
      "inputs": [
        {
          "internalType": "uint256",
          "name": "ID",
          "type": "uint256"
        }
      ],
      "name": "createPlayer",
      "outputs": [],
      "stateMutability": "payable",
      "type": "function",
      "payable": true
    },
    {
      "inputs": [
        {
          "internalType": "uint256",
          "name": "ID",
          "type": "uint256"
        }
      ],
      "name": "totalBet",
      "outputs": [
        {
          "internalType": "uint256",
          "name": "",
          "type": "uint256"
        }
      ],
      "stateMutability": "view",
      "type": "function",
      "constant": true
    },
    {
      "inputs": [
        {
          "internalType": "uint256",
          "name": "ID",
          "type": "uint256"
        },
        {
          "internalType": "address",
          "name": "player",
          "type": "address"
        }
      ],
      "name": "winner",
      "outputs": [],
      "stateMutability": "nonpayable",
      "type": "function"
    },
    {
      "inputs": [
        {
          "internalType": "address",
          "name": "player",
          "type": "address"
        }
      ],
      "name": "getBet",
      "outputs": [
        {
          "internalType": "uint256",
          "name": "",
          "type": "uint256"
        }
      ],
      "stateMutability": "view",
      "type": "function",
      "constant": true
    },
    {
      "inputs": [
        {
          "internalType": "uint256",
          "name": "ID",
          "type": "uint256"
        }
      ],
      "name": "draw",
      "outputs": [],
      "stateMutability": "nonpayable",
      "type": "function"
    }
  ],
  "bytecode": "0x60806040526658d15e17628000600455600a60065534801561002057600080fd5b50600160008190555033600360006101000a81548173ffffffffffffffffffffffffffffffffffffffff021916908373ffffffffffffffffffffffffffffffffffffffff160217905550612798806100796000396000f3fe6080604052600436106100c25760003560e01c806358eb2df51161007f578063c833845611610059578063c83384561461024a578063dbfb6b5414610287578063f67883dc146102a3578063f7566b49146102e0576100c2565b806358eb2df5146101e9578063c23b139e14610205578063c24d443a14610221576100c2565b80630f08efe0146100c757806310afee1e146100f257806312e855851461012f5780631d3bdcd51461015a5780633b304147146101835780634c93703b146101ac575b600080fd5b3480156100d357600080fd5b506100dc61031d565b6040516100e9919061224c565b60405180910390f35b3480156100fe57600080fd5b5061011960048036038101906101149190611d9f565b610633565b604051610126919061224c565b60405180910390f35b34801561013b57600080fd5b506101446109cf565b60405161015191906122ee565b60405180910390f35b34801561016657600080fd5b50610181600480360381019061017c9190611ebd565b6109d9565b005b34801561018f57600080fd5b506101aa60048036038101906101a59190611e94565b610ba4565b005b3480156101b857600080fd5b506101d360048036038101906101ce9190611e53565b610e19565b6040516101e091906122ee565b60405180910390f35b61020360048036038101906101fe9190611e04565b610e41565b005b61021f600480360381019061021a9190611dc8565b6111a5565b005b34801561022d57600080fd5b5061024860048036038101906102439190611e53565b61145e565b005b34801561025657600080fd5b50610271600480360381019061026c9190611d9f565b6114ed565b60405161027e919061224c565b60405180910390f35b6102a1600480360381019061029c9190611e94565b611889565b005b3480156102af57600080fd5b506102ca60048036038101906102c59190611e94565b611973565b6040516102d791906122ee565b60405180910390f35b3480156102ec57600080fd5b5061030760048036038101906103029190611d9f565b611b31565b60405161031491906122ee565b60405180910390f35b6060600061032b6001611b7a565b905060006103396002611b7a565b6103436001611b7a565b61034d919061242a565b90506000808267ffffffffffffffff811115610392577f4e487b7100000000000000000000000000000000000000000000000000000000600052604160045260246000fd5b6040519080825280602002602001820160405280156103cb57816020015b6103b8611be9565b8152602001906001900390816103b05790505b50905060005b8481101561062857600073ffffffffffffffffffffffffffffffffffffffff166005600060018461040291906123d4565b815260200190815260200160002060040160009054906101000a900473ffffffffffffffffffffffffffffffffffffffff1673ffffffffffffffffffffffffffffffffffffffff16141561061557600060018261045f91906123d4565b90506000600560008381526020019081526020016000209050806040518060e0016040529081600082015481526020016001820160009054906101000a900473ffffffffffffffffffffffffffffffffffffffff1673ffffffffffffffffffffffffffffffffffffffff1673ffffffffffffffffffffffffffffffffffffffff168152602001600282015481526020016003820160009054906101000a900473ffffffffffffffffffffffffffffffffffffffff1673ffffffffffffffffffffffffffffffffffffffff1673ffffffffffffffffffffffffffffffffffffffff1681526020016004820160009054906101000a900473ffffffffffffffffffffffffffffffffffffffff1673ffffffffffffffffffffffffffffffffffffffff1673ffffffffffffffffffffffffffffffffffffffff168152602001600582015481526020016006820160009054906101000a900460ff1615151515815250508486815181106105f8577f4e487b7100000000000000000000000000000000000000000000000000000000600052603260045260246000fd5b602002602001018190525060018561061091906123d4565b945050505b80806106209061255d565b9150506103d1565b508094505050505090565b606060006106416001611b7a565b905060008060005b838110156106ea578573ffffffffffffffffffffffffffffffffffffffff166005600060018461067991906123d4565b815260200190815260200160002060040160009054906101000a900473ffffffffffffffffffffffffffffffffffffffff1673ffffffffffffffffffffffffffffffffffffffff1614156106d7576001836106d491906123d4565b92505b80806106e29061255d565b915050610649565b5060008267ffffffffffffffff81111561072d577f4e487b7100000000000000000000000000000000000000000000000000000000600052604160045260246000fd5b60405190808252806020026020018201604052801561076657816020015b610753611be9565b81526020019060019003908161074b5790505b50905060005b848110156109c2578673ffffffffffffffffffffffffffffffffffffffff166005600060018461079c91906123d4565b815260200190815260200160002060040160009054906101000a900473ffffffffffffffffffffffffffffffffffffffff1673ffffffffffffffffffffffffffffffffffffffff1614156109af5760006001826107f991906123d4565b90506000600560008381526020019081526020016000209050806040518060e0016040529081600082015481526020016001820160009054906101000a900473ffffffffffffffffffffffffffffffffffffffff1673ffffffffffffffffffffffffffffffffffffffff1673ffffffffffffffffffffffffffffffffffffffff168152602001600282015481526020016003820160009054906101000a900473ffffffffffffffffffffffffffffffffffffffff1673ffffffffffffffffffffffffffffffffffffffff1673ffffffffffffffffffffffffffffffffffffffff1681526020016004820160009054906101000a900473ffffffffffffffffffffffffffffffffffffffff1673ffffffffffffffffffffffffffffffffffffffff1673ffffffffffffffffffffffffffffffffffffffff168152602001600582015481526020016006820160009054906101000a900460ff161515151581525050848681518110610992577f4e487b7100000000000000000000000000000000000000000000000000000000600052603260045260246000fd5b60200260200101819052506001856109aa91906123d4565b945050505b80806109ba9061255d565b91505061076c565b5080945050505050919050565b6000600454905090565b60006009600084815260200190815260200160002090506000600782604051610a0291906121b9565b9081526020016040518091039020805490509050600080600090505b82811015610b71578473ffffffffffffffffffffffffffffffffffffffff16600785604051610a4d91906121b9565b90815260200160405180910390208281548110610a93577f4e487b7100000000000000000000000000000000000000000000000000000000600052603260045260246000fd5b9060005260206000200160009054906101000a900473ffffffffffffffffffffffffffffffffffffffff1673ffffffffffffffffffffffffffffffffffffffff161415610b5e57600784604051610aea91906121b9565b90815260200160405180910390208181548110610b30577f4e487b7100000000000000000000000000000000000000000000000000000000600052603260045260246000fd5b9060005260206000200160009054906101000a900473ffffffffffffffffffffffffffffffffffffffff1691505b8080610b699061255d565b915050610a1e565b506000600654610b8087611973565b610b8a919061242a565b90506000819050610b9b8382611b88565b50505050505050565b60006009600083815260200190815260200160002090506000600782604051610bcd91906121b9565b9081526020016040518091039020600081548110610c14577f4e487b7100000000000000000000000000000000000000000000000000000000600052603260045260246000fd5b9060005260206000200160009054906101000a900473ffffffffffffffffffffffffffffffffffffffff1690506000600654610cd0600785604051610c5991906121b9565b9081526020016040518091039020600081548110610ca0577f4e487b7100000000000000000000000000000000000000000000000000000000600052603260045260246000fd5b9060005260206000200160009054906101000a900473ffffffffffffffffffffffffffffffffffffffff16611b31565b610cda919061242a565b90506000600784604051610cee91906121b9565b9081526020016040518091039020600181548110610d35577f4e487b7100000000000000000000000000000000000000000000000000000000600052603260045260246000fd5b9060005260206000200160009054906101000a900473ffffffffffffffffffffffffffffffffffffffff1690506000600654610df1600787604051610d7a91906121b9565b9081526020016040518091039020600181548110610dc1577f4e487b7100000000000000000000000000000000000000000000000000000000600052603260045260246000fd5b9060005260206000200160009054906101000a900473ffffffffffffffffffffffffffffffffffffffff16611b31565b610dfb919061242a565b9050610e078484611b88565b610e118282611b88565b505050505050565b6000600a82604051610e2b91906121a2565b9081526020016040518091039020549050919050565b60026000541415610e87576040517f08c379a0000000000000000000000000000000000000000000000000000000008152600401610e7e906122ae565b60405180910390fd5b600260008190555060008111610ed2576040517f08c379a0000000000000000000000000000000000000000000000000000000008152600401610ec9906122ce565b60405180910390fd5b6004543414610f16576040517f08c379a0000000000000000000000000000000000000000000000000000000008152600401610f0d9061228e565b60405180910390fd5b610f206001611bd3565b6000610f2c6001611b7a565b90506040518060e001604052808281526020018573ffffffffffffffffffffffffffffffffffffffff1681526020018481526020013373ffffffffffffffffffffffffffffffffffffffff168152602001600073ffffffffffffffffffffffffffffffffffffffff16815260200183815260200160001515815250600560008381526020019081526020016000206000820151816000015560208201518160010160006101000a81548173ffffffffffffffffffffffffffffffffffffffff021916908373ffffffffffffffffffffffffffffffffffffffff1602179055506040820151816002015560608201518160030160006101000a81548173ffffffffffffffffffffffffffffffffffffffff021916908373ffffffffffffffffffffffffffffffffffffffff16021790555060808201518160040160006101000a81548173ffffffffffffffffffffffffffffffffffffffff021916908373ffffffffffffffffffffffffffffffffffffffff16021790555060a0820151816005015560c08201518160060160006101000a81548160ff0219169083151502179055509050508373ffffffffffffffffffffffffffffffffffffffff166323b872dd3330866040518463ffffffff1660e01b815260040161110d939291906121d0565b600060405180830381600087803b15801561112757600080fd5b505af115801561113b573d6000803e3d6000fd5b50505050828473ffffffffffffffffffffffffffffffffffffffff16827f045dfa01dcba2b36aba1d3dc4a874f4b0c5d2fbeb8d2c4b34a7d88c8d8f929d133600087600060405161118f9493929190612207565b60405180910390a4506001600081905550505050565b600260005414156111eb576040517f08c379a00000000000000000000000000000000000000000000000000000000081526004016111e2906122ae565b60405180910390fd5b600260008190555060006005600083815260200190815260200160002060050154905060006005600084815260200190815260200160002060020154905081341461126b576040517f08c379a00000000000000000000000000000000000000000000000000000000081526004016112629061226e565b60405180910390fd5b6005600084815260200190815260200160002060030160009054906101000a900473ffffffffffffffffffffffffffffffffffffffff1673ffffffffffffffffffffffffffffffffffffffff166108fc349081150290604051600060405180830381858888f193505050501580156112e7573d6000803e3d6000fd5b508373ffffffffffffffffffffffffffffffffffffffff166323b872dd3033846040518463ffffffff1660e01b8152600401611325939291906121d0565b600060405180830381600087803b15801561133f57600080fd5b505af1158015611353573d6000803e3d6000fd5b50505050336005600085815260200190815260200160002060040160006101000a81548173ffffffffffffffffffffffffffffffffffffffff021916908373ffffffffffffffffffffffffffffffffffffffff16021790555060016005600085815260200190815260200160002060060160006101000a81548160ff0219169083151502179055506113e56002611bd3565b600360009054906101000a900473ffffffffffffffffffffffffffffffffffffffff1673ffffffffffffffffffffffffffffffffffffffff166108fc6004549081150290604051600060405180830381858888f1935050505015801561144f573d6000803e3d6000fd5b50505060016000819055505050565b6000600a8260405161147091906121a2565b90815260200160405180910390205414156114ea576001600b5461149491906123d4565b600b819055508060096000600b54815260200190815260200160002090805190602001906114c3929190611c6a565b50600b54600a826040516114d791906121a2565b9081526020016040518091039020819055505b50565b606060006114fb6001611b7a565b905060008060005b838110156115a4578573ffffffffffffffffffffffffffffffffffffffff166005600060018461153391906123d4565b815260200190815260200160002060030160009054906101000a900473ffffffffffffffffffffffffffffffffffffffff1673ffffffffffffffffffffffffffffffffffffffff1614156115915760018361158e91906123d4565b92505b808061159c9061255d565b915050611503565b5060008267ffffffffffffffff8111156115e7577f4e487b7100000000000000000000000000000000000000000000000000000000600052604160045260246000fd5b60405190808252806020026020018201604052801561162057816020015b61160d611be9565b8152602001906001900390816116055790505b50905060005b8481101561187c578673ffffffffffffffffffffffffffffffffffffffff166005600060018461165691906123d4565b815260200190815260200160002060030160009054906101000a900473ffffffffffffffffffffffffffffffffffffffff1673ffffffffffffffffffffffffffffffffffffffff1614156118695760006001826116b391906123d4565b90506000600560008381526020019081526020016000209050806040518060e0016040529081600082015481526020016001820160009054906101000a900473ffffffffffffffffffffffffffffffffffffffff1673ffffffffffffffffffffffffffffffffffffffff1673ffffffffffffffffffffffffffffffffffffffff168152602001600282015481526020016003820160009054906101000a900473ffffffffffffffffffffffffffffffffffffffff1673ffffffffffffffffffffffffffffffffffffffff1673ffffffffffffffffffffffffffffffffffffffff1681526020016004820160009054906101000a900473ffffffffffffffffffffffffffffffffffffffff1673ffffffffffffffffffffffffffffffffffffffff1673ffffffffffffffffffffffffffffffffffffffff168152602001600582015481526020016006820160009054906101000a900460ff16151515158152505084868151811061184c577f4e487b7100000000000000000000000000000000000000000000000000000000600052603260045260246000fd5b602002602001018190525060018561186491906123d4565b945050505b80806118749061255d565b915050611626565b5080945050505050919050565b6000600960008381526020019081526020016000209050600033905060003490506007836040516118ba91906121b9565b9081526020016040518091039020829080600181540180825580915050600190039060005260206000200160009091909190916101000a81548173ffffffffffffffffffffffffffffffffffffffff021916908373ffffffffffffffffffffffffffffffffffffffff16021790555080600860008473ffffffffffffffffffffffffffffffffffffffff1673ffffffffffffffffffffffffffffffffffffffff1681526020019081526020016000208190555050505050565b6000806009600084815260200190815260200160002090506000600860006007846040516119a191906121b9565b90815260200160405180910390206000815481106119e8577f4e487b7100000000000000000000000000000000000000000000000000000000600052603260045260246000fd5b9060005260206000200160009054906101000a900473ffffffffffffffffffffffffffffffffffffffff1673ffffffffffffffffffffffffffffffffffffffff1673ffffffffffffffffffffffffffffffffffffffff168152602001908152602001600020549050600060086000600785604051611a6691906121b9565b9081526020016040518091039020600181548110611aad577f4e487b7100000000000000000000000000000000000000000000000000000000600052603260045260246000fd5b9060005260206000200160009054906101000a900473ffffffffffffffffffffffffffffffffffffffff1673ffffffffffffffffffffffffffffffffffffffff1673ffffffffffffffffffffffffffffffffffffffff16815260200190815260200160002054905060008183611b2391906123d4565b905080945050505050919050565b6000600860008373ffffffffffffffffffffffffffffffffffffffff1673ffffffffffffffffffffffffffffffffffffffff168152602001908152602001600020549050919050565b600081600001549050919050565b8173ffffffffffffffffffffffffffffffffffffffff166108fc829081150290604051600060405180830381858888f19350505050158015611bce573d6000803e3d6000fd5b505050565b6001816000016000828254019250508190555050565b6040518060e0016040528060008152602001600073ffffffffffffffffffffffffffffffffffffffff16815260200160008152602001600073ffffffffffffffffffffffffffffffffffffffff168152602001600073ffffffffffffffffffffffffffffffffffffffff168152602001600081526020016000151581525090565b828054611c76906124fa565b90600052602060002090601f016020900481019282611c985760008555611cdf565b82601f10611cb157805160ff1916838001178555611cdf565b82800160010185558215611cdf579182015b82811115611cde578251825591602001919060010190611cc3565b5b509050611cec9190611cf0565b5090565b5b80821115611d09576000816000905550600101611cf1565b5090565b6000611d20611d1b8461232e565b612309565b905082815260208101848484011115611d3857600080fd5b611d438482856124b8565b509392505050565b600081359050611d5a81612734565b92915050565b600082601f830112611d7157600080fd5b8135611d81848260208601611d0d565b91505092915050565b600081359050611d998161274b565b92915050565b600060208284031215611db157600080fd5b6000611dbf84828501611d4b565b91505092915050565b60008060408385031215611ddb57600080fd5b6000611de985828601611d4b565b9250506020611dfa85828601611d8a565b9150509250929050565b600080600060608486031215611e1957600080fd5b6000611e2786828701611d4b565b9350506020611e3886828701611d8a565b9250506040611e4986828701611d8a565b9150509250925092565b600060208284031215611e6557600080fd5b600082013567ffffffffffffffff811115611e7f57600080fd5b611e8b84828501611d60565b91505092915050565b600060208284031215611ea657600080fd5b6000611eb484828501611d8a565b91505092915050565b60008060408385031215611ed057600080fd5b6000611ede85828601611d8a565b9250506020611eef85828601611d4b565b9150509250929050565b6000611f0583836120f6565b60e08301905092915050565b611f1a81612470565b82525050565b611f298161245e565b82525050565b611f388161245e565b82525050565b6000611f4982612384565b611f5381856123a7565b9350611f5e8361235f565b8060005b83811015611f8f578151611f768882611ef9565b9750611f818361239a565b925050600181019050611f62565b5085935050505092915050565b611fa581612482565b82525050565b611fb481612482565b82525050565b6000611fc58261238f565b611fcf81856123c9565b9350611fdf8185602086016124c7565b80840191505092915050565b60008154611ff8816124fa565b61200281866123c9565b9450600182166000811461201d576001811461202e57612061565b60ff19831686528186019350612061565b6120378561236f565b60005b838110156120595781548189015260018201915060208101905061203a565b838801955050505b50505092915050565b60006120776040836123b8565b915061208282612644565b604082019050919050565b600061209a6024836123b8565b91506120a582612693565b604082019050919050565b60006120bd601f836123b8565b91506120c8826126e2565b602082019050919050565b60006120e0601c836123b8565b91506120eb8261270b565b602082019050919050565b60e08201600082015161210c6000850182612184565b50602082015161211f6020850182611f20565b5060408201516121326040850182612184565b5060608201516121456060850182611f11565b5060808201516121586080850182611f11565b5060a082015161216b60a0850182612184565b5060c082015161217e60c0850182611f9c565b50505050565b61218d816124ae565b82525050565b61219c816124ae565b82525050565b60006121ae8284611fba565b915081905092915050565b60006121c58284611feb565b915081905092915050565b60006060820190506121e56000830186611f2f565b6121f26020830185611f2f565b6121ff6040830184612193565b949350505050565b600060808201905061221c6000830187611f2f565b6122296020830186611f2f565b6122366040830185612193565b6122436060830184611fab565b95945050505050565b600060208201905081810360008301526122668184611f3e565b905092915050565b600060208201905081810360008301526122878161206a565b9050919050565b600060208201905081810360008301526122a78161208d565b9050919050565b600060208201905081810360008301526122c7816120b0565b9050919050565b600060208201905081810360008301526122e7816120d3565b9050919050565b60006020820190506123036000830184612193565b92915050565b6000612313612324565b905061231f828261252c565b919050565b6000604051905090565b600067ffffffffffffffff82111561234957612348612604565b5b61235282612633565b9050602081019050919050565b6000819050602082019050919050565b60008190508160005260206000209050919050565b600081519050919050565b600081519050919050565b6000602082019050919050565b600082825260208201905092915050565b600082825260208201905092915050565b600081905092915050565b60006123df826124ae565b91506123ea836124ae565b9250827fffffffffffffffffffffffffffffffffffffffffffffffffffffffffffffffff0382111561241f5761241e6125a6565b5b828201905092915050565b6000612435826124ae565b9150612440836124ae565b925082821015612453576124526125a6565b5b828203905092915050565b60006124698261248e565b9050919050565b600061247b8261248e565b9050919050565b60008115159050919050565b600073ffffffffffffffffffffffffffffffffffffffff82169050919050565b6000819050919050565b82818337600083830152505050565b60005b838110156124e55780820151818401526020810190506124ca565b838111156124f4576000848401525b50505050565b6000600282049050600182168061251257607f821691505b60208210811415612526576125256125d5565b5b50919050565b61253582612633565b810181811067ffffffffffffffff8211171561255457612553612604565b5b80604052505050565b6000612568826124ae565b91507fffffffffffffffffffffffffffffffffffffffffffffffffffffffffffffffff82141561259b5761259a6125a6565b5b600182019050919050565b7f4e487b7100000000000000000000000000000000000000000000000000000000600052601160045260246000fd5b7f4e487b7100000000000000000000000000000000000000000000000000000000600052602260045260246000fd5b7f4e487b7100000000000000000000000000000000000000000000000000000000600052604160045260246000fd5b6000601f19601f8301169050919050565b7f506c65617365207375626d6974207468652061736b696e67207072696365206960008201527f6e206f7264657220746f20636f6d706c65746520746865207075726368617365602082015250565b7f5072696365206d75737420626520657175616c20746f206c697374696e67207060008201527f7269636500000000000000000000000000000000000000000000000000000000602082015250565b7f5265656e7472616e637947756172643a207265656e7472616e742063616c6c00600082015250565b7f5072696365206d757374206265206174206c6561737420312077656900000000600082015250565b61273d8161245e565b811461274857600080fd5b50565b612754816124ae565b811461275f57600080fd5b5056fea26469706673582212203cd83fb4623dc3be2647b34871e478d1b501f2706f63679fb8d74c0edd7a4c9564736f6c63430008030033",
  "immutableReferences": {},
  "source": "// SPDX-License-Identifier: MIT\npragma solidity >=0.6.0 <0.9.0;\n\nimport \"./Market.sol\";\n\ncontract PawnWars is PawnWarsMarket {\n    uint256 private commission = 10 wei;\n    // uint256 public fund = 0;\n\n    // Created a Mapping game which maps from string to address array\n    mapping(string => address[]) private game;\n\n    // Created Mapping betAmount which maps from adddress to uint\n    // It maps from address of player to bet amount\n    mapping(address => uint256) private betAmount;\n\n    // Created Mapping to store the unique id vs room id string\n    mapping(uint256 => string) private roomIdMap;\n\n    // Created Mapping to store the room id string vs unique id\n    mapping(string => uint256) private iDRoomMap;\n\n    // Set a Unique ID\n    uint256 private uniqueid;\n\n    // Set the mappings with room id string vs unique id and unique id vs room id string\n    function setid(string memory roomID) public {\n        if (iDRoomMap[roomID] == 0) {\n            uniqueid = uniqueid + 1;\n            roomIdMap[uniqueid] = roomID;\n            iDRoomMap[roomID] = uniqueid;\n        }\n    }\n\n    // Get Function which returns the unique id for given string id\n    function getid(string memory roomID) public view returns (uint256) {\n        return iDRoomMap[roomID];\n    }\n\n    // Function which accept a payment from the user and creates a user\n    function createPlayer(uint256 ID) external payable {\n        string storage RoomID = roomIdMap[ID];\n        address sender = msg.sender;\n        uint256 betamount = msg.value;\n        game[RoomID].push(sender);\n        betAmount[sender] = betamount;\n    }\n\n    // Function to send the bet amount to the winner\n    function sendBetAmt(address payable player, uint256 bettedAmt) private {\n        player.transfer(bettedAmt);\n    }\n\n    // Calculate the Total Bet Amount\n    function totalBet(uint256 ID) public view returns (uint256) {\n        string storage RoomID = roomIdMap[ID];\n        uint256 Bet0 = betAmount[game[RoomID][0]];\n        uint256 Bet1 = betAmount[game[RoomID][1]];\n        uint256 total = Bet0 + Bet1;\n        return total;\n    }\n\n    // Function to take the winner index as input\n    // It calculates the Winner address and send total bet to the person\n    function winner(uint256 ID, address player) external {\n        string storage RoomID = roomIdMap[ID];\n        uint256 plength = game[RoomID].length;\n        address payable winner_address;\n        for (uint256 i = 0; i < plength; i++) {\n            if (game[RoomID][i] == player) {\n                winner_address = payable(game[RoomID][i]);\n            }\n        }\n        uint256 amount = (totalBet(ID) - commission);\n        uint256 totlBet = amount;\n        // fund += commission;\n        sendBetAmt(winner_address, totlBet);\n    }\n\n    // Function for Get Bet Amount By Address\n    function getBet(address player) public view returns (uint256) {\n        return betAmount[player];\n    }\n\n    // Function to send money to both players if it is draw game\n    function draw(uint256 ID) external {\n        string storage RoomID = roomIdMap[ID];\n        address payable player0_address = payable(game[RoomID][0]);\n        uint256 bet0 = getBet(game[RoomID][0]) - commission;\n        address payable player1_address = payable(game[RoomID][1]);\n        uint256 bet1 = getBet(game[RoomID][1]) - commission;\n        sendBetAmt(player0_address, bet0);\n        sendBetAmt(player1_address, bet1);\n    }\n}\n",
  "sourcePath": "/Volumes/FAST/GitHub/Pawn Wars/gambit/dapp/contracts/PawnWars.sol",
  "compiler": {
    "name": "solc",
    "version": "0.8.3+commit.8d00100c.Emscripten.clang"
  },
  "schemaVersion": "3.4.3",
  "updatedAt": "2021-12-15T17:16:18.266Z",
  "networkType": "ethereum",
  "devdoc": {
    "kind": "dev",
    "methods": {},
    "version": 1
  },
  "userdoc": {
    "kind": "user",
    "methods": {},
    "version": 1
  }
}