{
  "contractName": "PawnWars",
  "abi": [
    {
      "anonymous": false,
      "inputs": [
        {
          "indexed": true,
          "internalType": "uint256",
          "name": "itemId",
          "type": "uint256"
        },
        {
          "indexed": true,
          "internalType": "address",
          "name": "nftContract",
          "type": "address"
        },
        {
          "indexed": true,
          "internalType": "uint256",
          "name": "tokenId",
          "type": "uint256"
        },
        {
          "indexed": false,
          "internalType": "address",
          "name": "seller",
          "type": "address"
        },
        {
          "indexed": false,
          "internalType": "address",
          "name": "owner",
          "type": "address"
        },
        {
          "indexed": false,
          "internalType": "uint256",
          "name": "price",
          "type": "uint256"
        },
        {
          "indexed": false,
          "internalType": "bool",
          "name": "sold",
          "type": "bool"
        }
      ],
      "name": "MarketItemCreated",
      "type": "event"
    },
    {
      "inputs": [
        {
          "internalType": "address",
          "name": "nftContract",
          "type": "address"
        },
        {
          "internalType": "uint256",
          "name": "tokenId",
          "type": "uint256"
        },
        {
          "internalType": "uint256",
          "name": "price",
          "type": "uint256"
        }
      ],
      "name": "createMarketItem",
      "outputs": [],
      "stateMutability": "payable",
      "type": "function",
      "payable": true
    },
    {
      "inputs": [
        {
          "internalType": "address",
          "name": "nftContract",
          "type": "address"
        },
        {
          "internalType": "uint256",
          "name": "itemId",
          "type": "uint256"
        }
      ],
      "name": "createMarketSale",
      "outputs": [],
      "stateMutability": "payable",
      "type": "function",
      "payable": true
    },
    {
      "inputs": [],
      "name": "fetchItemsCreated",
      "outputs": [
        {
          "components": [
            {
              "internalType": "uint256",
              "name": "itemId",
              "type": "uint256"
            },
            {
              "internalType": "address",
              "name": "nftContract",
              "type": "address"
            },
            {
              "internalType": "uint256",
              "name": "tokenId",
              "type": "uint256"
            },
            {
              "internalType": "address payable",
              "name": "seller",
              "type": "address"
            },
            {
              "internalType": "address payable",
              "name": "owner",
              "type": "address"
            },
            {
              "internalType": "uint256",
              "name": "price",
              "type": "uint256"
            },
            {
              "internalType": "bool",
              "name": "sold",
              "type": "bool"
            }
          ],
          "internalType": "struct PawnWarsMarket.MarketItem[]",
          "name": "",
          "type": "tuple[]"
        }
      ],
      "stateMutability": "view",
      "type": "function",
      "constant": true
    },
    {
      "inputs": [],
      "name": "fetchMarketItems",
      "outputs": [
        {
          "components": [
            {
              "internalType": "uint256",
              "name": "itemId",
              "type": "uint256"
            },
            {
              "internalType": "address",
              "name": "nftContract",
              "type": "address"
            },
            {
              "internalType": "uint256",
              "name": "tokenId",
              "type": "uint256"
            },
            {
              "internalType": "address payable",
              "name": "seller",
              "type": "address"
            },
            {
              "internalType": "address payable",
              "name": "owner",
              "type": "address"
            },
            {
              "internalType": "uint256",
              "name": "price",
              "type": "uint256"
            },
            {
              "internalType": "bool",
              "name": "sold",
              "type": "bool"
            }
          ],
          "internalType": "struct PawnWarsMarket.MarketItem[]",
          "name": "",
          "type": "tuple[]"
        }
      ],
      "stateMutability": "view",
      "type": "function",
      "constant": true
    },
    {
      "inputs": [],
      "name": "fetchMyNFTs",
      "outputs": [
        {
          "components": [
            {
              "internalType": "uint256",
              "name": "itemId",
              "type": "uint256"
            },
            {
              "internalType": "address",
              "name": "nftContract",
              "type": "address"
            },
            {
              "internalType": "uint256",
              "name": "tokenId",
              "type": "uint256"
            },
            {
              "internalType": "address payable",
              "name": "seller",
              "type": "address"
            },
            {
              "internalType": "address payable",
              "name": "owner",
              "type": "address"
            },
            {
              "internalType": "uint256",
              "name": "price",
              "type": "uint256"
            },
            {
              "internalType": "bool",
              "name": "sold",
              "type": "bool"
            }
          ],
          "internalType": "struct PawnWarsMarket.MarketItem[]",
          "name": "",
          "type": "tuple[]"
        }
      ],
      "stateMutability": "view",
      "type": "function",
      "constant": true
    },
    {
      "inputs": [],
      "name": "fund",
      "outputs": [
        {
          "internalType": "uint256",
          "name": "",
          "type": "uint256"
        }
      ],
      "stateMutability": "view",
      "type": "function",
      "constant": true
    },
    {
      "inputs": [],
      "name": "getListingPrice",
      "outputs": [
        {
          "internalType": "uint256",
          "name": "",
          "type": "uint256"
        }
      ],
      "stateMutability": "view",
      "type": "function",
      "constant": true
    },
    {
      "inputs": [
        {
          "internalType": "string",
          "name": "roomID",
          "type": "string"
        }
      ],
      "name": "setid",
      "outputs": [],
      "stateMutability": "nonpayable",
      "type": "function"
    },
    {
      "inputs": [
        {
          "internalType": "string",
          "name": "roomID",
          "type": "string"
        }
      ],
      "name": "getid",
      "outputs": [
        {
          "internalType": "uint256",
          "name": "",
          "type": "uint256"
        }
      ],
      "stateMutability": "view",
      "type": "function",
      "constant": true
    },
    {
      "inputs": [
        {
          "internalType": "uint256",
          "name": "ID",
          "type": "uint256"
        }
      ],
      "name": "createPlayer",
      "outputs": [],
      "stateMutability": "payable",
      "type": "function",
      "payable": true
    },
    {
      "inputs": [
        {
          "internalType": "uint256",
          "name": "ID",
          "type": "uint256"
        }
      ],
      "name": "TotalBet",
      "outputs": [
        {
          "internalType": "uint256",
          "name": "",
          "type": "uint256"
        }
      ],
      "stateMutability": "view",
      "type": "function",
      "constant": true
    },
    {
      "inputs": [
        {
          "internalType": "uint256",
          "name": "ID",
          "type": "uint256"
        },
        {
          "internalType": "address",
          "name": "player",
          "type": "address"
        }
      ],
      "name": "Winner",
      "outputs": [],
      "stateMutability": "nonpayable",
      "type": "function"
    },
    {
      "inputs": [
        {
          "internalType": "address",
          "name": "player",
          "type": "address"
        }
      ],
      "name": "getBet",
      "outputs": [
        {
          "internalType": "uint256",
          "name": "",
          "type": "uint256"
        }
      ],
      "stateMutability": "view",
      "type": "function",
      "constant": true
    },
    {
      "inputs": [
        {
          "internalType": "uint256",
          "name": "ID",
          "type": "uint256"
        }
      ],
      "name": "Draw",
      "outputs": [],
      "stateMutability": "nonpayable",
      "type": "function"
    }
  ],
  "bytecode": "0x60806040526658d15e17628000600455611388600655600060075534801561002657600080fd5b50600160008190555033600360006101000a81548173ffffffffffffffffffffffffffffffffffffffff021916908373ffffffffffffffffffffffffffffffffffffffff1602179055506128438061007f6000396000f3fe6080604052600436106100dd5760003560e01c8063b60d42881161007f578063c860165411610059578063c86016541461027e578063dbfb6b54146102bb578063f064c32e146102d7578063f7566b4914610302576100dd565b8063b60d42881461020e578063c23b139e14610239578063c24d443a14610255576100dd565b80633fd10e0b116100bb5780633fd10e0b146101635780634c93703b1461018c57806358eb2df5146101c95780636b5936f5146101e5576100dd565b80630f08efe0146100e257806312e855851461010d578063202e374014610138575b600080fd5b3480156100ee57600080fd5b506100f761033f565b604051610104919061229d565b60405180910390f35b34801561011957600080fd5b50610122610655565b60405161012f919061233f565b60405180910390f35b34801561014457600080fd5b5061014d61065f565b60405161015a919061229d565b60405180910390f35b34801561016f57600080fd5b5061018a60048036038101906101859190611ee5565b6109f9565b005b34801561019857600080fd5b506101b360048036038101906101ae9190611ea4565b610c6e565b6040516101c0919061233f565b60405180910390f35b6101e360048036038101906101de9190611e55565b610c96565b005b3480156101f157600080fd5b5061020c60048036038101906102079190611f0e565b610ffa565b005b34801561021a57600080fd5b506102236111f2565b604051610230919061233f565b60405180910390f35b610253600480360381019061024e9190611e19565b6111f8565b005b34801561026157600080fd5b5061027c60048036038101906102779190611ea4565b6114b1565b005b34801561028a57600080fd5b506102a560048036038101906102a09190611ee5565b611540565b6040516102b2919061233f565b60405180910390f35b6102d560048036038101906102d09190611ee5565b6116fe565b005b3480156102e357600080fd5b506102ec6117e8565b6040516102f9919061229d565b60405180910390f35b34801561030e57600080fd5b5061032960048036038101906103249190611df0565b611b82565b604051610336919061233f565b60405180910390f35b6060600061034d6001611bcb565b9050600061035b6002611bcb565b6103656001611bcb565b61036f91906124d5565b90506000808267ffffffffffffffff8111156103b4577f4e487b7100000000000000000000000000000000000000000000000000000000600052604160045260246000fd5b6040519080825280602002602001820160405280156103ed57816020015b6103da611c3a565b8152602001906001900390816103d25790505b50905060005b8481101561064a57600073ffffffffffffffffffffffffffffffffffffffff16600560006001846104249190612425565b815260200190815260200160002060040160009054906101000a900473ffffffffffffffffffffffffffffffffffffffff1673ffffffffffffffffffffffffffffffffffffffff1614156106375760006001826104819190612425565b90506000600560008381526020019081526020016000209050806040518060e0016040529081600082015481526020016001820160009054906101000a900473ffffffffffffffffffffffffffffffffffffffff1673ffffffffffffffffffffffffffffffffffffffff1673ffffffffffffffffffffffffffffffffffffffff168152602001600282015481526020016003820160009054906101000a900473ffffffffffffffffffffffffffffffffffffffff1673ffffffffffffffffffffffffffffffffffffffff1673ffffffffffffffffffffffffffffffffffffffff1681526020016004820160009054906101000a900473ffffffffffffffffffffffffffffffffffffffff1673ffffffffffffffffffffffffffffffffffffffff1673ffffffffffffffffffffffffffffffffffffffff168152602001600582015481526020016006820160009054906101000a900460ff16151515158152505084868151811061061a577f4e487b7100000000000000000000000000000000000000000000000000000000600052603260045260246000fd5b60200260200101819052506001856106329190612425565b945050505b808061064290612608565b9150506103f3565b508094505050505090565b6000600454905090565b6060600061066d6001611bcb565b905060008060005b83811015610716573373ffffffffffffffffffffffffffffffffffffffff16600560006001846106a59190612425565b815260200190815260200160002060040160009054906101000a900473ffffffffffffffffffffffffffffffffffffffff1673ffffffffffffffffffffffffffffffffffffffff161415610703576001836107009190612425565b92505b808061070e90612608565b915050610675565b5060008267ffffffffffffffff811115610759577f4e487b7100000000000000000000000000000000000000000000000000000000600052604160045260246000fd5b60405190808252806020026020018201604052801561079257816020015b61077f611c3a565b8152602001906001900390816107775790505b50905060005b848110156109ee573373ffffffffffffffffffffffffffffffffffffffff16600560006001846107c89190612425565b815260200190815260200160002060040160009054906101000a900473ffffffffffffffffffffffffffffffffffffffff1673ffffffffffffffffffffffffffffffffffffffff1614156109db5760006001826108259190612425565b90506000600560008381526020019081526020016000209050806040518060e0016040529081600082015481526020016001820160009054906101000a900473ffffffffffffffffffffffffffffffffffffffff1673ffffffffffffffffffffffffffffffffffffffff1673ffffffffffffffffffffffffffffffffffffffff168152602001600282015481526020016003820160009054906101000a900473ffffffffffffffffffffffffffffffffffffffff1673ffffffffffffffffffffffffffffffffffffffff1673ffffffffffffffffffffffffffffffffffffffff1681526020016004820160009054906101000a900473ffffffffffffffffffffffffffffffffffffffff1673ffffffffffffffffffffffffffffffffffffffff1673ffffffffffffffffffffffffffffffffffffffff168152602001600582015481526020016006820160009054906101000a900460ff1615151515815250508486815181106109be577f4e487b7100000000000000000000000000000000000000000000000000000000600052603260045260246000fd5b60200260200101819052506001856109d69190612425565b945050505b80806109e690612608565b915050610798565b508094505050505090565b6000600a600083815260200190815260200160002090506000600882604051610a22919061220a565b9081526020016040518091039020600081548110610a69577f4e487b7100000000000000000000000000000000000000000000000000000000600052603260045260246000fd5b9060005260206000200160009054906101000a900473ffffffffffffffffffffffffffffffffffffffff1690506000600654610b25600885604051610aae919061220a565b9081526020016040518091039020600081548110610af5577f4e487b7100000000000000000000000000000000000000000000000000000000600052603260045260246000fd5b9060005260206000200160009054906101000a900473ffffffffffffffffffffffffffffffffffffffff16611b82565b610b2f91906124d5565b90506000600884604051610b43919061220a565b9081526020016040518091039020600181548110610b8a577f4e487b7100000000000000000000000000000000000000000000000000000000600052603260045260246000fd5b9060005260206000200160009054906101000a900473ffffffffffffffffffffffffffffffffffffffff1690506000600654610c46600887604051610bcf919061220a565b9081526020016040518091039020600181548110610c16577f4e487b7100000000000000000000000000000000000000000000000000000000600052603260045260246000fd5b9060005260206000200160009054906101000a900473ffffffffffffffffffffffffffffffffffffffff16611b82565b610c5091906124d5565b9050610c5c8484611bd9565b610c668282611bd9565b505050505050565b6000600b82604051610c8091906121f3565b9081526020016040518091039020549050919050565b60026000541415610cdc576040517f08c379a0000000000000000000000000000000000000000000000000000000008152600401610cd3906122ff565b60405180910390fd5b600260008190555060008111610d27576040517f08c379a0000000000000000000000000000000000000000000000000000000008152600401610d1e9061231f565b60405180910390fd5b6004543414610d6b576040517f08c379a0000000000000000000000000000000000000000000000000000000008152600401610d62906122df565b60405180910390fd5b610d756001611c24565b6000610d816001611bcb565b90506040518060e001604052808281526020018573ffffffffffffffffffffffffffffffffffffffff1681526020018481526020013373ffffffffffffffffffffffffffffffffffffffff168152602001600073ffffffffffffffffffffffffffffffffffffffff16815260200183815260200160001515815250600560008381526020019081526020016000206000820151816000015560208201518160010160006101000a81548173ffffffffffffffffffffffffffffffffffffffff021916908373ffffffffffffffffffffffffffffffffffffffff1602179055506040820151816002015560608201518160030160006101000a81548173ffffffffffffffffffffffffffffffffffffffff021916908373ffffffffffffffffffffffffffffffffffffffff16021790555060808201518160040160006101000a81548173ffffffffffffffffffffffffffffffffffffffff021916908373ffffffffffffffffffffffffffffffffffffffff16021790555060a0820151816005015560c08201518160060160006101000a81548160ff0219169083151502179055509050508373ffffffffffffffffffffffffffffffffffffffff166323b872dd3330866040518463ffffffff1660e01b8152600401610f6293929190612221565b600060405180830381600087803b158015610f7c57600080fd5b505af1158015610f90573d6000803e3d6000fd5b50505050828473ffffffffffffffffffffffffffffffffffffffff16827f045dfa01dcba2b36aba1d3dc4a874f4b0c5d2fbeb8d2c4b34a7d88c8d8f929d1336000876000604051610fe49493929190612258565b60405180910390a4506001600081905550505050565b6000600a600084815260200190815260200160002090506000600882604051611023919061220a565b9081526020016040518091039020805490509050600080600090505b82811015611192578473ffffffffffffffffffffffffffffffffffffffff1660088560405161106e919061220a565b908152602001604051809103902082815481106110b4577f4e487b7100000000000000000000000000000000000000000000000000000000600052603260045260246000fd5b9060005260206000200160009054906101000a900473ffffffffffffffffffffffffffffffffffffffff1673ffffffffffffffffffffffffffffffffffffffff16141561117f5760088460405161110b919061220a565b90815260200160405180910390208181548110611151577f4e487b7100000000000000000000000000000000000000000000000000000000600052603260045260246000fd5b9060005260206000200160009054906101000a900473ffffffffffffffffffffffffffffffffffffffff1691505b808061118a90612608565b91505061103f565b50600060065460026111a4919061247b565b6111ad87611540565b6111b791906124d5565b905060065460026111c8919061247b565b600760008282546111d99190612425565b925050819055506111ea8282611bd9565b505050505050565b60075481565b6002600054141561123e576040517f08c379a0000000000000000000000000000000000000000000000000000000008152600401611235906122ff565b60405180910390fd5b60026000819055506000600560008381526020019081526020016000206005015490506000600560008481526020019081526020016000206002015490508134146112be576040517f08c379a00000000000000000000000000000000000000000000000000000000081526004016112b5906122bf565b60405180910390fd5b6005600084815260200190815260200160002060030160009054906101000a900473ffffffffffffffffffffffffffffffffffffffff1673ffffffffffffffffffffffffffffffffffffffff166108fc349081150290604051600060405180830381858888f1935050505015801561133a573d6000803e3d6000fd5b508373ffffffffffffffffffffffffffffffffffffffff166323b872dd3033846040518463ffffffff1660e01b815260040161137893929190612221565b600060405180830381600087803b15801561139257600080fd5b505af11580156113a6573d6000803e3d6000fd5b50505050336005600085815260200190815260200160002060040160006101000a81548173ffffffffffffffffffffffffffffffffffffffff021916908373ffffffffffffffffffffffffffffffffffffffff16021790555060016005600085815260200190815260200160002060060160006101000a81548160ff0219169083151502179055506114386002611c24565b600360009054906101000a900473ffffffffffffffffffffffffffffffffffffffff1673ffffffffffffffffffffffffffffffffffffffff166108fc6004549081150290604051600060405180830381858888f193505050501580156114a2573d6000803e3d6000fd5b50505060016000819055505050565b6000600b826040516114c391906121f3565b908152602001604051809103902054141561153d576001600c546114e79190612425565b600c8190555080600a6000600c5481526020019081526020016000209080519060200190611516929190611cbb565b50600c54600b8260405161152a91906121f3565b9081526020016040518091039020819055505b50565b600080600a6000848152602001908152602001600020905060006009600060088460405161156e919061220a565b90815260200160405180910390206000815481106115b5577f4e487b7100000000000000000000000000000000000000000000000000000000600052603260045260246000fd5b9060005260206000200160009054906101000a900473ffffffffffffffffffffffffffffffffffffffff1673ffffffffffffffffffffffffffffffffffffffff1673ffffffffffffffffffffffffffffffffffffffff168152602001908152602001600020549050600060096000600885604051611633919061220a565b908152602001604051809103902060018154811061167a577f4e487b7100000000000000000000000000000000000000000000000000000000600052603260045260246000fd5b9060005260206000200160009054906101000a900473ffffffffffffffffffffffffffffffffffffffff1673ffffffffffffffffffffffffffffffffffffffff1673ffffffffffffffffffffffffffffffffffffffff168152602001908152602001600020549050600081836116f09190612425565b905080945050505050919050565b6000600a600083815260200190815260200160002090506000339050600034905060088360405161172f919061220a565b9081526020016040518091039020829080600181540180825580915050600190039060005260206000200160009091909190916101000a81548173ffffffffffffffffffffffffffffffffffffffff021916908373ffffffffffffffffffffffffffffffffffffffff16021790555080600960008473ffffffffffffffffffffffffffffffffffffffff1673ffffffffffffffffffffffffffffffffffffffff1681526020019081526020016000208190555050505050565b606060006117f66001611bcb565b905060008060005b8381101561189f573373ffffffffffffffffffffffffffffffffffffffff166005600060018461182e9190612425565b815260200190815260200160002060030160009054906101000a900473ffffffffffffffffffffffffffffffffffffffff1673ffffffffffffffffffffffffffffffffffffffff16141561188c576001836118899190612425565b92505b808061189790612608565b9150506117fe565b5060008267ffffffffffffffff8111156118e2577f4e487b7100000000000000000000000000000000000000000000000000000000600052604160045260246000fd5b60405190808252806020026020018201604052801561191b57816020015b611908611c3a565b8152602001906001900390816119005790505b50905060005b84811015611b77573373ffffffffffffffffffffffffffffffffffffffff16600560006001846119519190612425565b815260200190815260200160002060030160009054906101000a900473ffffffffffffffffffffffffffffffffffffffff1673ffffffffffffffffffffffffffffffffffffffff161415611b645760006001826119ae9190612425565b90506000600560008381526020019081526020016000209050806040518060e0016040529081600082015481526020016001820160009054906101000a900473ffffffffffffffffffffffffffffffffffffffff1673ffffffffffffffffffffffffffffffffffffffff1673ffffffffffffffffffffffffffffffffffffffff168152602001600282015481526020016003820160009054906101000a900473ffffffffffffffffffffffffffffffffffffffff1673ffffffffffffffffffffffffffffffffffffffff1673ffffffffffffffffffffffffffffffffffffffff1681526020016004820160009054906101000a900473ffffffffffffffffffffffffffffffffffffffff1673ffffffffffffffffffffffffffffffffffffffff1673ffffffffffffffffffffffffffffffffffffffff168152602001600582015481526020016006820160009054906101000a900460ff161515151581525050848681518110611b47577f4e487b7100000000000000000000000000000000000000000000000000000000600052603260045260246000fd5b6020026020010181905250600185611b5f9190612425565b945050505b8080611b6f90612608565b915050611921565b508094505050505090565b6000600960008373ffffffffffffffffffffffffffffffffffffffff1673ffffffffffffffffffffffffffffffffffffffff168152602001908152602001600020549050919050565b600081600001549050919050565b8173ffffffffffffffffffffffffffffffffffffffff166108fc829081150290604051600060405180830381858888f19350505050158015611c1f573d6000803e3d6000fd5b505050565b6001816000016000828254019250508190555050565b6040518060e0016040528060008152602001600073ffffffffffffffffffffffffffffffffffffffff16815260200160008152602001600073ffffffffffffffffffffffffffffffffffffffff168152602001600073ffffffffffffffffffffffffffffffffffffffff168152602001600081526020016000151581525090565b828054611cc7906125a5565b90600052602060002090601f016020900481019282611ce95760008555611d30565b82601f10611d0257805160ff1916838001178555611d30565b82800160010185558215611d30579182015b82811115611d2f578251825591602001919060010190611d14565b5b509050611d3d9190611d41565b5090565b5b80821115611d5a576000816000905550600101611d42565b5090565b6000611d71611d6c8461237f565b61235a565b905082815260208101848484011115611d8957600080fd5b611d94848285612563565b509392505050565b600081359050611dab816127df565b92915050565b600082601f830112611dc257600080fd5b8135611dd2848260208601611d5e565b91505092915050565b600081359050611dea816127f6565b92915050565b600060208284031215611e0257600080fd5b6000611e1084828501611d9c565b91505092915050565b60008060408385031215611e2c57600080fd5b6000611e3a85828601611d9c565b9250506020611e4b85828601611ddb565b9150509250929050565b600080600060608486031215611e6a57600080fd5b6000611e7886828701611d9c565b9350506020611e8986828701611ddb565b9250506040611e9a86828701611ddb565b9150509250925092565b600060208284031215611eb657600080fd5b600082013567ffffffffffffffff811115611ed057600080fd5b611edc84828501611db1565b91505092915050565b600060208284031215611ef757600080fd5b6000611f0584828501611ddb565b91505092915050565b60008060408385031215611f2157600080fd5b6000611f2f85828601611ddb565b9250506020611f4085828601611d9c565b9150509250929050565b6000611f568383612147565b60e08301905092915050565b611f6b8161251b565b82525050565b611f7a81612509565b82525050565b611f8981612509565b82525050565b6000611f9a826123d5565b611fa481856123f8565b9350611faf836123b0565b8060005b83811015611fe0578151611fc78882611f4a565b9750611fd2836123eb565b925050600181019050611fb3565b5085935050505092915050565b611ff68161252d565b82525050565b6120058161252d565b82525050565b6000612016826123e0565b612020818561241a565b9350612030818560208601612572565b80840191505092915050565b60008154612049816125a5565b612053818661241a565b9450600182166000811461206e576001811461207f576120b2565b60ff198316865281860193506120b2565b612088856123c0565b60005b838110156120aa5781548189015260018201915060208101905061208b565b838801955050505b50505092915050565b60006120c8604083612409565b91506120d3826126ef565b604082019050919050565b60006120eb602483612409565b91506120f68261273e565b604082019050919050565b600061210e601f83612409565b91506121198261278d565b602082019050919050565b6000612131601c83612409565b915061213c826127b6565b602082019050919050565b60e08201600082015161215d60008501826121d5565b5060208201516121706020850182611f71565b50604082015161218360408501826121d5565b5060608201516121966060850182611f62565b5060808201516121a96080850182611f62565b5060a08201516121bc60a08501826121d5565b5060c08201516121cf60c0850182611fed565b50505050565b6121de81612559565b82525050565b6121ed81612559565b82525050565b60006121ff828461200b565b915081905092915050565b6000612216828461203c565b915081905092915050565b60006060820190506122366000830186611f80565b6122436020830185611f80565b61225060408301846121e4565b949350505050565b600060808201905061226d6000830187611f80565b61227a6020830186611f80565b61228760408301856121e4565b6122946060830184611ffc565b95945050505050565b600060208201905081810360008301526122b78184611f8f565b905092915050565b600060208201905081810360008301526122d8816120bb565b9050919050565b600060208201905081810360008301526122f8816120de565b9050919050565b6000602082019050818103600083015261231881612101565b9050919050565b6000602082019050818103600083015261233881612124565b9050919050565b600060208201905061235460008301846121e4565b92915050565b6000612364612375565b905061237082826125d7565b919050565b6000604051905090565b600067ffffffffffffffff82111561239a576123996126af565b5b6123a3826126de565b9050602081019050919050565b6000819050602082019050919050565b60008190508160005260206000209050919050565b600081519050919050565b600081519050919050565b6000602082019050919050565b600082825260208201905092915050565b600082825260208201905092915050565b600081905092915050565b600061243082612559565b915061243b83612559565b9250827fffffffffffffffffffffffffffffffffffffffffffffffffffffffffffffffff038211156124705761246f612651565b5b828201905092915050565b600061248682612559565b915061249183612559565b9250817fffffffffffffffffffffffffffffffffffffffffffffffffffffffffffffffff04831182151516156124ca576124c9612651565b5b828202905092915050565b60006124e082612559565b91506124eb83612559565b9250828210156124fe576124fd612651565b5b828203905092915050565b600061251482612539565b9050919050565b600061252682612539565b9050919050565b60008115159050919050565b600073ffffffffffffffffffffffffffffffffffffffff82169050919050565b6000819050919050565b82818337600083830152505050565b60005b83811015612590578082015181840152602081019050612575565b8381111561259f576000848401525b50505050565b600060028204905060018216806125bd57607f821691505b602082108114156125d1576125d0612680565b5b50919050565b6125e0826126de565b810181811067ffffffffffffffff821117156125ff576125fe6126af565b5b80604052505050565b600061261382612559565b91507fffffffffffffffffffffffffffffffffffffffffffffffffffffffffffffffff82141561264657612645612651565b5b600182019050919050565b7f4e487b7100000000000000000000000000000000000000000000000000000000600052601160045260246000fd5b7f4e487b7100000000000000000000000000000000000000000000000000000000600052602260045260246000fd5b7f4e487b7100000000000000000000000000000000000000000000000000000000600052604160045260246000fd5b6000601f19601f8301169050919050565b7f506c65617365207375626d6974207468652061736b696e67207072696365206960008201527f6e206f7264657220746f20636f6d706c65746520746865207075726368617365602082015250565b7f5072696365206d75737420626520657175616c20746f206c697374696e67207060008201527f7269636500000000000000000000000000000000000000000000000000000000602082015250565b7f5265656e7472616e637947756172643a207265656e7472616e742063616c6c00600082015250565b7f5072696365206d757374206265206174206c6561737420312077656900000000600082015250565b6127e881612509565b81146127f357600080fd5b50565b6127ff81612559565b811461280a57600080fd5b5056fea26469706673582212202fed817c655dbecf5d1cca689d245a15a3371568ff01d6626bb64a90eda4304e64736f6c63430008030033",
  "immutableReferences": {},
  "source": "// SPDX-License-Identifier: MIT\npragma solidity >=0.6.0 <0.9.0;\n\nimport './Market.sol';\n\ncontract PawnWars is PawnWarsMarket{\n    // Storing the commission as 5000 Wei\n\n    uint256 private commission = 5000;\n\n    /// Game fund obtained form commision\n    uint256 public fund = 0;\n\n    // Created a Mapping Game which maps from string to address array\n\n    mapping(string => address[]) private Game;\n\n    // Created Mapping BetAmt which maps from adddress to uint\n    // It maps from address of player to bet amount\n\n    mapping(address => uint256) private BetAmt;\n\n    // Created Mapping to store the unique id vs room id string\n\n    mapping(uint256 => string) private RoomIDMap;\n\n    // Created Mapping to store the room id string vs unique id\n\n    mapping(string => uint256) private IDRoomMap;\n\n    // Set a Unique ID\n\n    uint256 private uniqueid;\n\n    // event SetID(\n    //     bool status\n    // );\n\n    // Set the mappings with room id string vs unique id and unique id vs room id string\n\n    function setid(string memory roomID) public {\n        // If the room ID already exists in the mapping then it will not create a new one\n        if (IDRoomMap[roomID] == 0) {\n            uniqueid = uniqueid + 1;\n            RoomIDMap[uniqueid] = roomID;\n            IDRoomMap[roomID] = uniqueid;\n        }\n        // emit SetID(true);\n    }\n\n    // Get Function which returns the unique id for given string id\n\n    function getid(string memory roomID) public view returns (uint256) {\n        return IDRoomMap[roomID];\n    }\n\n    // event SuccessDeposit(\n    //     address sender,\n    //     uint betAmount,\n    //     string roomId\n    // );\n\n    // Function which accept a payment from the user and creates a user\n\n    function createPlayer(uint256 ID) external payable {\n        string storage RoomID = RoomIDMap[ID];\n        address sender = msg.sender;\n        uint256 betamount = msg.value;\n        Game[RoomID].push(sender);\n        BetAmt[sender] = betamount;\n        // emit SuccessDeposit(sender, betamount, RoomID);\n    }\n\n    // Function to send the bet amount to the winner\n\n    function sendBetAmt(address payable winner, uint256 bettedAmt) private {\n        winner.transfer(bettedAmt);\n    }\n\n    // Calculate the Total Bet Amount\n\n    function TotalBet(uint256 ID) public view returns (uint256) {\n        string storage RoomID = RoomIDMap[ID];\n        uint256 Bet0 = BetAmt[Game[RoomID][0]];\n        uint256 Bet1 = BetAmt[Game[RoomID][1]];\n        uint256 total = Bet0 + Bet1;\n        return total;\n    }\n\n    // event GameWon(\n    //     address winner,\n    //     uint amount,\n    //     uint index\n\n    // );\n    // Function to take the winner index as input\n    // It calculates the Winner address and send total bet to the person\n\n    function Winner(uint256 ID, address player) external {\n        string storage RoomID = RoomIDMap[ID];\n        uint plength = Game[RoomID].length;\n         address payable winner_address;\n        for(uint i = 0 ; i < plength; i++){\n            if( Game[RoomID][i] == player){\n                winner_address = payable(Game[RoomID][i]);\n            }\n        }\n        uint256 totalBet = TotalBet(ID) - 2 * commission;\n        fund += 2 * commission;\n        sendBetAmt(winner_address, totalBet);\n        // emit GameWon(winner_address, totalBet, index);\n    }\n\n    // Function for Get Bet Amount By Address\n\n    function getBet(address player) public view returns (uint256) {\n        return BetAmt[player];\n    }\n\n    // event GameDraw(\n    //     bool status\n    // );\n\n    // Function to send money to both players if it is draw game\n\n    function Draw(uint256 ID) external {\n        string storage RoomID = RoomIDMap[ID];\n        address payable player0_address = payable(Game[RoomID][0]);\n        uint256 bet0 = getBet(Game[RoomID][0]) - commission;\n        address payable player1_address = payable(Game[RoomID][1]);\n        uint256 bet1 = getBet(Game[RoomID][1]) - commission;\n        sendBetAmt(player0_address, bet0);\n        sendBetAmt(player1_address, bet1);\n        // emit GameDraw(true);\n    }\n}\n",
  "sourcePath": "/Volumes/FAST/GitHub/Pawn Wars/gambit/dapp/contracts/PawnWars.sol",
  "compiler": {
    "name": "solc",
    "version": "0.8.3+commit.8d00100c.Emscripten.clang"
  },
  "schemaVersion": "3.4.3",
  "updatedAt": "2021-12-12T13:03:32.946Z",
  "networkType": "ethereum",
  "devdoc": {
    "kind": "dev",
    "methods": {},
    "version": 1
  },
  "userdoc": {
    "kind": "user",
    "methods": {
      "fund()": {
        "notice": "Game fund obtained form commision"
      }
    },
    "version": 1
  }
}