{
  "contractName": "NFT",
  "abi": [
    {
      "inputs": [
        {
          "internalType": "address",
          "name": "marketplaceAddress",
          "type": "address"
        }
      ],
      "stateMutability": "nonpayable",
      "type": "constructor"
    },
    {
      "anonymous": false,
      "inputs": [
        {
          "indexed": true,
          "internalType": "address",
          "name": "owner",
          "type": "address"
        },
        {
          "indexed": true,
          "internalType": "address",
          "name": "approved",
          "type": "address"
        },
        {
          "indexed": true,
          "internalType": "uint256",
          "name": "tokenId",
          "type": "uint256"
        }
      ],
      "name": "Approval",
      "type": "event"
    },
    {
      "anonymous": false,
      "inputs": [
        {
          "indexed": true,
          "internalType": "address",
          "name": "owner",
          "type": "address"
        },
        {
          "indexed": true,
          "internalType": "address",
          "name": "operator",
          "type": "address"
        },
        {
          "indexed": false,
          "internalType": "bool",
          "name": "approved",
          "type": "bool"
        }
      ],
      "name": "ApprovalForAll",
      "type": "event"
    },
    {
      "anonymous": false,
      "inputs": [
        {
          "indexed": true,
          "internalType": "address",
          "name": "from",
          "type": "address"
        },
        {
          "indexed": true,
          "internalType": "address",
          "name": "to",
          "type": "address"
        },
        {
          "indexed": true,
          "internalType": "uint256",
          "name": "tokenId",
          "type": "uint256"
        }
      ],
      "name": "Transfer",
      "type": "event"
    },
    {
      "inputs": [
        {
          "internalType": "address",
          "name": "to",
          "type": "address"
        },
        {
          "internalType": "uint256",
          "name": "tokenId",
          "type": "uint256"
        }
      ],
      "name": "approve",
      "outputs": [],
      "stateMutability": "nonpayable",
      "type": "function"
    },
    {
      "inputs": [
        {
          "internalType": "address",
          "name": "owner",
          "type": "address"
        }
      ],
      "name": "balanceOf",
      "outputs": [
        {
          "internalType": "uint256",
          "name": "",
          "type": "uint256"
        }
      ],
      "stateMutability": "view",
      "type": "function",
      "constant": true
    },
    {
      "inputs": [
        {
          "internalType": "uint256",
          "name": "tokenId",
          "type": "uint256"
        }
      ],
      "name": "getApproved",
      "outputs": [
        {
          "internalType": "address",
          "name": "",
          "type": "address"
        }
      ],
      "stateMutability": "view",
      "type": "function",
      "constant": true
    },
    {
      "inputs": [
        {
          "internalType": "address",
          "name": "owner",
          "type": "address"
        },
        {
          "internalType": "address",
          "name": "operator",
          "type": "address"
        }
      ],
      "name": "isApprovedForAll",
      "outputs": [
        {
          "internalType": "bool",
          "name": "",
          "type": "bool"
        }
      ],
      "stateMutability": "view",
      "type": "function",
      "constant": true
    },
    {
      "inputs": [],
      "name": "name",
      "outputs": [
        {
          "internalType": "string",
          "name": "",
          "type": "string"
        }
      ],
      "stateMutability": "view",
      "type": "function",
      "constant": true
    },
    {
      "inputs": [
        {
          "internalType": "uint256",
          "name": "tokenId",
          "type": "uint256"
        }
      ],
      "name": "ownerOf",
      "outputs": [
        {
          "internalType": "address",
          "name": "",
          "type": "address"
        }
      ],
      "stateMutability": "view",
      "type": "function",
      "constant": true
    },
    {
      "inputs": [
        {
          "internalType": "address",
          "name": "from",
          "type": "address"
        },
        {
          "internalType": "address",
          "name": "to",
          "type": "address"
        },
        {
          "internalType": "uint256",
          "name": "tokenId",
          "type": "uint256"
        }
      ],
      "name": "safeTransferFrom",
      "outputs": [],
      "stateMutability": "nonpayable",
      "type": "function"
    },
    {
      "inputs": [
        {
          "internalType": "address",
          "name": "from",
          "type": "address"
        },
        {
          "internalType": "address",
          "name": "to",
          "type": "address"
        },
        {
          "internalType": "uint256",
          "name": "tokenId",
          "type": "uint256"
        },
        {
          "internalType": "bytes",
          "name": "_data",
          "type": "bytes"
        }
      ],
      "name": "safeTransferFrom",
      "outputs": [],
      "stateMutability": "nonpayable",
      "type": "function"
    },
    {
      "inputs": [
        {
          "internalType": "address",
          "name": "operator",
          "type": "address"
        },
        {
          "internalType": "bool",
          "name": "approved",
          "type": "bool"
        }
      ],
      "name": "setApprovalForAll",
      "outputs": [],
      "stateMutability": "nonpayable",
      "type": "function"
    },
    {
      "inputs": [
        {
          "internalType": "bytes4",
          "name": "interfaceId",
          "type": "bytes4"
        }
      ],
      "name": "supportsInterface",
      "outputs": [
        {
          "internalType": "bool",
          "name": "",
          "type": "bool"
        }
      ],
      "stateMutability": "view",
      "type": "function",
      "constant": true
    },
    {
      "inputs": [],
      "name": "symbol",
      "outputs": [
        {
          "internalType": "string",
          "name": "",
          "type": "string"
        }
      ],
      "stateMutability": "view",
      "type": "function",
      "constant": true
    },
    {
      "inputs": [
        {
          "internalType": "uint256",
          "name": "tokenId",
          "type": "uint256"
        }
      ],
      "name": "tokenURI",
      "outputs": [
        {
          "internalType": "string",
          "name": "",
          "type": "string"
        }
      ],
      "stateMutability": "view",
      "type": "function",
      "constant": true
    },
    {
      "inputs": [
        {
          "internalType": "address",
          "name": "from",
          "type": "address"
        },
        {
          "internalType": "address",
          "name": "to",
          "type": "address"
        },
        {
          "internalType": "uint256",
          "name": "tokenId",
          "type": "uint256"
        }
      ],
      "name": "transferFrom",
      "outputs": [],
      "stateMutability": "nonpayable",
      "type": "function"
    },
    {
      "inputs": [
        {
          "internalType": "string",
          "name": "tokenURI",
          "type": "string"
        }
      ],
      "name": "createToken",
      "outputs": [
        {
          "internalType": "uint256",
          "name": "",
          "type": "uint256"
        }
      ],
      "stateMutability": "nonpayable",
      "type": "function"
    }
  ],
  "bytecode": "0x60806040523480156200001157600080fd5b5060405162002e5c38038062002e5c8339818101604052810190620000379190620001e6565b6040518060400160405280600881526020017f5061776e576172730000000000000000000000000000000000000000000000008152506040518060400160405280600481526020017f5041574e000000000000000000000000000000000000000000000000000000008152508160009080519060200190620000bb9291906200011f565b508060019080519060200190620000d49291906200011f565b50505080600860006101000a81548173ffffffffffffffffffffffffffffffffffffffff021916908373ffffffffffffffffffffffffffffffffffffffff16021790555050620002c5565b8280546200012d9062000246565b90600052602060002090601f0160209004810192826200015157600085556200019d565b82601f106200016c57805160ff19168380011785556200019d565b828001600101855582156200019d579182015b828111156200019c5782518255916020019190600101906200017f565b5b509050620001ac9190620001b0565b5090565b5b80821115620001cb576000816000905550600101620001b1565b5090565b600081519050620001e081620002ab565b92915050565b600060208284031215620001f957600080fd5b60006200020984828501620001cf565b91505092915050565b60006200021f8262000226565b9050919050565b600073ffffffffffffffffffffffffffffffffffffffff82169050919050565b600060028204905060018216806200025f57607f821691505b602082108114156200027657620002756200027c565b5b50919050565b7f4e487b7100000000000000000000000000000000000000000000000000000000600052602260045260246000fd5b620002b68162000212565b8114620002c257600080fd5b50565b612b8780620002d56000396000f3fe608060405234801561001057600080fd5b50600436106100ea5760003560e01c80636352211e1161008c578063a22cb46511610066578063a22cb4651461026f578063b88d4fde1461028b578063c87b56dd146102a7578063e985e9c5146102d7576100ea565b80636352211e146101f157806370a082311461022157806395d89b4114610251576100ea565b8063095ea7b3116100c8578063095ea7b31461016d57806323b872dd1461018957806342842e0e146101a557806345576f94146101c1576100ea565b806301ffc9a7146100ef57806306fdde031461011f578063081812fc1461013d575b600080fd5b61010960048036038101906101049190611bf3565b610307565b604051610116919061203a565b60405180910390f35b6101276103e9565b6040516101349190612055565b60405180910390f35b61015760048036038101906101529190611c86565b61047b565b6040516101649190611fd3565b60405180910390f35b61018760048036038101906101829190611bb7565b610500565b005b6101a3600480360381019061019e9190611ab1565b610618565b005b6101bf60048036038101906101ba9190611ab1565b610678565b005b6101db60048036038101906101d69190611c45565b610698565b6040516101e89190612277565b60405180910390f35b61020b60048036038101906102069190611c86565b6106fc565b6040516102189190611fd3565b60405180910390f35b61023b60048036038101906102369190611a4c565b6107ae565b6040516102489190612277565b60405180910390f35b610259610866565b6040516102669190612055565b60405180910390f35b61028960048036038101906102849190611b7b565b6108f8565b005b6102a560048036038101906102a09190611b00565b61090e565b005b6102c160048036038101906102bc9190611c86565b610970565b6040516102ce9190612055565b60405180910390f35b6102f160048036038101906102ec9190611a75565b610ac2565b6040516102fe919061203a565b60405180910390f35b60007f80ac58cd000000000000000000000000000000000000000000000000000000007bffffffffffffffffffffffffffffffffffffffffffffffffffffffff1916827bffffffffffffffffffffffffffffffffffffffffffffffffffffffff191614806103d257507f5b5e139f000000000000000000000000000000000000000000000000000000007bffffffffffffffffffffffffffffffffffffffffffffffffffffffff1916827bffffffffffffffffffffffffffffffffffffffffffffffffffffffff1916145b806103e257506103e182610b56565b5b9050919050565b6060600080546103f8906124cd565b80601f0160208091040260200160405190810160405280929190818152602001828054610424906124cd565b80156104715780601f1061044657610100808354040283529160200191610471565b820191906000526020600020905b81548152906001019060200180831161045457829003601f168201915b5050505050905090565b600061048682610bc0565b6104c5576040517f08c379a00000000000000000000000000000000000000000000000000000000081526004016104bc906121d7565b60405180910390fd5b6004600083815260200190815260200160002060009054906101000a900473ffffffffffffffffffffffffffffffffffffffff169050919050565b600061050b826106fc565b90508073ffffffffffffffffffffffffffffffffffffffff168373ffffffffffffffffffffffffffffffffffffffff16141561057c576040517f08c379a000000000000000000000000000000000000000000000000000000000815260040161057390612237565b60405180910390fd5b8073ffffffffffffffffffffffffffffffffffffffff1661059b610c2c565b73ffffffffffffffffffffffffffffffffffffffff1614806105ca57506105c9816105c4610c2c565b610ac2565b5b610609576040517f08c379a000000000000000000000000000000000000000000000000000000000815260040161060090612117565b60405180910390fd5b6106138383610c34565b505050565b610629610623610c2c565b82610ced565b610668576040517f08c379a000000000000000000000000000000000000000000000000000000000815260040161065f90612257565b60405180910390fd5b610673838383610dcb565b505050565b6106938383836040518060200160405280600081525061090e565b505050565b60006106a46007611027565b60006106b0600761103d565b90506106bc338261104b565b6106c68184611219565b6106f3600860009054906101000a900473ffffffffffffffffffffffffffffffffffffffff1660016108f8565b80915050919050565b6000806002600084815260200190815260200160002060009054906101000a900473ffffffffffffffffffffffffffffffffffffffff169050600073ffffffffffffffffffffffffffffffffffffffff168173ffffffffffffffffffffffffffffffffffffffff1614156107a5576040517f08c379a000000000000000000000000000000000000000000000000000000000815260040161079c90612157565b60405180910390fd5b80915050919050565b60008073ffffffffffffffffffffffffffffffffffffffff168273ffffffffffffffffffffffffffffffffffffffff16141561081f576040517f08c379a000000000000000000000000000000000000000000000000000000000815260040161081690612137565b60405180910390fd5b600360008373ffffffffffffffffffffffffffffffffffffffff1673ffffffffffffffffffffffffffffffffffffffff168152602001908152602001600020549050919050565b606060018054610875906124cd565b80601f01602080910402602001604051908101604052809291908181526020018280546108a1906124cd565b80156108ee5780601f106108c3576101008083540402835291602001916108ee565b820191906000526020600020905b8154815290600101906020018083116108d157829003601f168201915b5050505050905090565b61090a610903610c2c565b838361128d565b5050565b61091f610919610c2c565b83610ced565b61095e576040517f08c379a000000000000000000000000000000000000000000000000000000000815260040161095590612257565b60405180910390fd5b61096a848484846113fa565b50505050565b606061097b82610bc0565b6109ba576040517f08c379a00000000000000000000000000000000000000000000000000000000081526004016109b1906121b7565b60405180910390fd5b60006006600084815260200190815260200160002080546109da906124cd565b80601f0160208091040260200160405190810160405280929190818152602001828054610a06906124cd565b8015610a535780601f10610a2857610100808354040283529160200191610a53565b820191906000526020600020905b815481529060010190602001808311610a3657829003601f168201915b505050505090506000610a64611456565b9050600081511415610a7a578192505050610abd565b600082511115610aaf578082604051602001610a97929190611faf565b60405160208183030381529060405292505050610abd565b610ab88461146d565b925050505b919050565b6000600560008473ffffffffffffffffffffffffffffffffffffffff1673ffffffffffffffffffffffffffffffffffffffff16815260200190815260200160002060008373ffffffffffffffffffffffffffffffffffffffff1673ffffffffffffffffffffffffffffffffffffffff16815260200190815260200160002060009054906101000a900460ff16905092915050565b60007f01ffc9a7000000000000000000000000000000000000000000000000000000007bffffffffffffffffffffffffffffffffffffffffffffffffffffffff1916827bffffffffffffffffffffffffffffffffffffffffffffffffffffffff1916149050919050565b60008073ffffffffffffffffffffffffffffffffffffffff166002600084815260200190815260200160002060009054906101000a900473ffffffffffffffffffffffffffffffffffffffff1673ffffffffffffffffffffffffffffffffffffffff1614159050919050565b600033905090565b816004600083815260200190815260200160002060006101000a81548173ffffffffffffffffffffffffffffffffffffffff021916908373ffffffffffffffffffffffffffffffffffffffff160217905550808273ffffffffffffffffffffffffffffffffffffffff16610ca7836106fc565b73ffffffffffffffffffffffffffffffffffffffff167f8c5be1e5ebec7d5bd14f71427d1e84f3dd0314c0f7b2291e5b200ac8c7c3b92560405160405180910390a45050565b6000610cf882610bc0565b610d37576040517f08c379a0000000000000000000000000000000000000000000000000000000008152600401610d2e906120f7565b60405180910390fd5b6000610d42836106fc565b90508073ffffffffffffffffffffffffffffffffffffffff168473ffffffffffffffffffffffffffffffffffffffff161480610db157508373ffffffffffffffffffffffffffffffffffffffff16610d998461047b565b73ffffffffffffffffffffffffffffffffffffffff16145b80610dc25750610dc18185610ac2565b5b91505092915050565b8273ffffffffffffffffffffffffffffffffffffffff16610deb826106fc565b73ffffffffffffffffffffffffffffffffffffffff1614610e41576040517f08c379a0000000000000000000000000000000000000000000000000000000008152600401610e38906121f7565b60405180910390fd5b600073ffffffffffffffffffffffffffffffffffffffff168273ffffffffffffffffffffffffffffffffffffffff161415610eb1576040517f08c379a0000000000000000000000000000000000000000000000000000000008152600401610ea8906120b7565b60405180910390fd5b610ebc838383611514565b610ec7600082610c34565b6001600360008573ffffffffffffffffffffffffffffffffffffffff1673ffffffffffffffffffffffffffffffffffffffff1681526020019081526020016000206000828254610f1791906123e3565b925050819055506001600360008473ffffffffffffffffffffffffffffffffffffffff1673ffffffffffffffffffffffffffffffffffffffff1681526020019081526020016000206000828254610f6e919061235c565b92505081905550816002600083815260200190815260200160002060006101000a81548173ffffffffffffffffffffffffffffffffffffffff021916908373ffffffffffffffffffffffffffffffffffffffff160217905550808273ffffffffffffffffffffffffffffffffffffffff168473ffffffffffffffffffffffffffffffffffffffff167fddf252ad1be2c89b69c2b068fc378daa952ba7f163c4a11628f55a4df523b3ef60405160405180910390a4505050565b6001816000016000828254019250508190555050565b600081600001549050919050565b600073ffffffffffffffffffffffffffffffffffffffff168273ffffffffffffffffffffffffffffffffffffffff1614156110bb576040517f08c379a00000000000000000000000000000000000000000000000000000000081526004016110b290612197565b60405180910390fd5b6110c481610bc0565b15611104576040517f08c379a00000000000000000000000000000000000000000000000000000000081526004016110fb90612097565b60405180910390fd5b61111060008383611514565b6001600360008473ffffffffffffffffffffffffffffffffffffffff1673ffffffffffffffffffffffffffffffffffffffff1681526020019081526020016000206000828254611160919061235c565b92505081905550816002600083815260200190815260200160002060006101000a81548173ffffffffffffffffffffffffffffffffffffffff021916908373ffffffffffffffffffffffffffffffffffffffff160217905550808273ffffffffffffffffffffffffffffffffffffffff16600073ffffffffffffffffffffffffffffffffffffffff167fddf252ad1be2c89b69c2b068fc378daa952ba7f163c4a11628f55a4df523b3ef60405160405180910390a45050565b61122282610bc0565b611261576040517f08c379a000000000000000000000000000000000000000000000000000000000815260040161125890612177565b60405180910390fd5b80600660008481526020019081526020016000209080519060200190611288929190611870565b505050565b8173ffffffffffffffffffffffffffffffffffffffff168373ffffffffffffffffffffffffffffffffffffffff1614156112fc576040517f08c379a00000000000000000000000000000000000000000000000000000000081526004016112f3906120d7565b60405180910390fd5b80600560008573ffffffffffffffffffffffffffffffffffffffff1673ffffffffffffffffffffffffffffffffffffffff16815260200190815260200160002060008473ffffffffffffffffffffffffffffffffffffffff1673ffffffffffffffffffffffffffffffffffffffff16815260200190815260200160002060006101000a81548160ff0219169083151502179055508173ffffffffffffffffffffffffffffffffffffffff168373ffffffffffffffffffffffffffffffffffffffff167f17307eab39ab6107e8899845ad3d59bd9653f200f220920489ca2b5937696c31836040516113ed919061203a565b60405180910390a3505050565b611405848484610dcb565b61141184848484611519565b611450576040517f08c379a000000000000000000000000000000000000000000000000000000000815260040161144790612077565b60405180910390fd5b50505050565b606060405180602001604052806000815250905090565b606061147882610bc0565b6114b7576040517f08c379a00000000000000000000000000000000000000000000000000000000081526004016114ae90612217565b60405180910390fd5b60006114c1611456565b905060008151116114e1576040518060200160405280600081525061150c565b806114eb846116b0565b6040516020016114fc929190611faf565b6040516020818303038152906040525b915050919050565b505050565b600061153a8473ffffffffffffffffffffffffffffffffffffffff1661185d565b156116a3578373ffffffffffffffffffffffffffffffffffffffff1663150b7a02611563610c2c565b8786866040518563ffffffff1660e01b81526004016115859493929190611fee565b602060405180830381600087803b15801561159f57600080fd5b505af19250505080156115d057506040513d601f19601f820116820180604052508101906115cd9190611c1c565b60015b611653573d8060008114611600576040519150601f19603f3d011682016040523d82523d6000602084013e611605565b606091505b5060008151141561164b576040517f08c379a000000000000000000000000000000000000000000000000000000000815260040161164290612077565b60405180910390fd5b805181602001fd5b63150b7a0260e01b7bffffffffffffffffffffffffffffffffffffffffffffffffffffffff1916817bffffffffffffffffffffffffffffffffffffffffffffffffffffffff1916149150506116a8565b600190505b949350505050565b606060008214156116f8576040518060400160405280600181526020017f30000000000000000000000000000000000000000000000000000000000000008152509050611858565b600082905060005b6000821461172a57808061171390612530565b915050600a8261172391906123b2565b9150611700565b60008167ffffffffffffffff81111561176c577f4e487b7100000000000000000000000000000000000000000000000000000000600052604160045260246000fd5b6040519080825280601f01601f19166020018201604052801561179e5781602001600182028036833780820191505090505b5090505b60008514611851576001826117b791906123e3565b9150600a856117c69190612579565b60306117d2919061235c565b60f81b81838151811061180e577f4e487b7100000000000000000000000000000000000000000000000000000000600052603260045260246000fd5b60200101907effffffffffffffffffffffffffffffffffffffffffffffffffffffffffffff1916908160001a905350600a8561184a91906123b2565b94506117a2565b8093505050505b919050565b600080823b905060008111915050919050565b82805461187c906124cd565b90600052602060002090601f01602090048101928261189e57600085556118e5565b82601f106118b757805160ff19168380011785556118e5565b828001600101855582156118e5579182015b828111156118e45782518255916020019190600101906118c9565b5b5090506118f291906118f6565b5090565b5b8082111561190f5760008160009055506001016118f7565b5090565b6000611926611921846122b7565b612292565b90508281526020810184848401111561193e57600080fd5b61194984828561248b565b509392505050565b600061196461195f846122e8565b612292565b90508281526020810184848401111561197c57600080fd5b61198784828561248b565b509392505050565b60008135905061199e81612af5565b92915050565b6000813590506119b381612b0c565b92915050565b6000813590506119c881612b23565b92915050565b6000815190506119dd81612b23565b92915050565b600082601f8301126119f457600080fd5b8135611a04848260208601611913565b91505092915050565b600082601f830112611a1e57600080fd5b8135611a2e848260208601611951565b91505092915050565b600081359050611a4681612b3a565b92915050565b600060208284031215611a5e57600080fd5b6000611a6c8482850161198f565b91505092915050565b60008060408385031215611a8857600080fd5b6000611a968582860161198f565b9250506020611aa78582860161198f565b9150509250929050565b600080600060608486031215611ac657600080fd5b6000611ad48682870161198f565b9350506020611ae58682870161198f565b9250506040611af686828701611a37565b9150509250925092565b60008060008060808587031215611b1657600080fd5b6000611b248782880161198f565b9450506020611b358782880161198f565b9350506040611b4687828801611a37565b925050606085013567ffffffffffffffff811115611b6357600080fd5b611b6f878288016119e3565b91505092959194509250565b60008060408385031215611b8e57600080fd5b6000611b9c8582860161198f565b9250506020611bad858286016119a4565b9150509250929050565b60008060408385031215611bca57600080fd5b6000611bd88582860161198f565b9250506020611be985828601611a37565b9150509250929050565b600060208284031215611c0557600080fd5b6000611c13848285016119b9565b91505092915050565b600060208284031215611c2e57600080fd5b6000611c3c848285016119ce565b91505092915050565b600060208284031215611c5757600080fd5b600082013567ffffffffffffffff811115611c7157600080fd5b611c7d84828501611a0d565b91505092915050565b600060208284031215611c9857600080fd5b6000611ca684828501611a37565b91505092915050565b611cb881612417565b82525050565b611cc781612429565b82525050565b6000611cd882612319565b611ce2818561232f565b9350611cf281856020860161249a565b611cfb81612666565b840191505092915050565b6000611d1182612324565b611d1b8185612340565b9350611d2b81856020860161249a565b611d3481612666565b840191505092915050565b6000611d4a82612324565b611d548185612351565b9350611d6481856020860161249a565b80840191505092915050565b6000611d7d603283612340565b9150611d8882612677565b604082019050919050565b6000611da0601c83612340565b9150611dab826126c6565b602082019050919050565b6000611dc3602483612340565b9150611dce826126ef565b604082019050919050565b6000611de6601983612340565b9150611df18261273e565b602082019050919050565b6000611e09602c83612340565b9150611e1482612767565b604082019050919050565b6000611e2c603883612340565b9150611e37826127b6565b604082019050919050565b6000611e4f602a83612340565b9150611e5a82612805565b604082019050919050565b6000611e72602983612340565b9150611e7d82612854565b604082019050919050565b6000611e95602e83612340565b9150611ea0826128a3565b604082019050919050565b6000611eb8602083612340565b9150611ec3826128f2565b602082019050919050565b6000611edb603183612340565b9150611ee68261291b565b604082019050919050565b6000611efe602c83612340565b9150611f098261296a565b604082019050919050565b6000611f21602983612340565b9150611f2c826129b9565b604082019050919050565b6000611f44602f83612340565b9150611f4f82612a08565b604082019050919050565b6000611f67602183612340565b9150611f7282612a57565b604082019050919050565b6000611f8a603183612340565b9150611f9582612aa6565b604082019050919050565b611fa981612481565b82525050565b6000611fbb8285611d3f565b9150611fc78284611d3f565b91508190509392505050565b6000602082019050611fe86000830184611caf565b92915050565b60006080820190506120036000830187611caf565b6120106020830186611caf565b61201d6040830185611fa0565b818103606083015261202f8184611ccd565b905095945050505050565b600060208201905061204f6000830184611cbe565b92915050565b6000602082019050818103600083015261206f8184611d06565b905092915050565b6000602082019050818103600083015261209081611d70565b9050919050565b600060208201905081810360008301526120b081611d93565b9050919050565b600060208201905081810360008301526120d081611db6565b9050919050565b600060208201905081810360008301526120f081611dd9565b9050919050565b6000602082019050818103600083015261211081611dfc565b9050919050565b6000602082019050818103600083015261213081611e1f565b9050919050565b6000602082019050818103600083015261215081611e42565b9050919050565b6000602082019050818103600083015261217081611e65565b9050919050565b6000602082019050818103600083015261219081611e88565b9050919050565b600060208201905081810360008301526121b081611eab565b9050919050565b600060208201905081810360008301526121d081611ece565b9050919050565b600060208201905081810360008301526121f081611ef1565b9050919050565b6000602082019050818103600083015261221081611f14565b9050919050565b6000602082019050818103600083015261223081611f37565b9050919050565b6000602082019050818103600083015261225081611f5a565b9050919050565b6000602082019050818103600083015261227081611f7d565b9050919050565b600060208201905061228c6000830184611fa0565b92915050565b600061229c6122ad565b90506122a882826124ff565b919050565b6000604051905090565b600067ffffffffffffffff8211156122d2576122d1612637565b5b6122db82612666565b9050602081019050919050565b600067ffffffffffffffff82111561230357612302612637565b5b61230c82612666565b9050602081019050919050565b600081519050919050565b600081519050919050565b600082825260208201905092915050565b600082825260208201905092915050565b600081905092915050565b600061236782612481565b915061237283612481565b9250827fffffffffffffffffffffffffffffffffffffffffffffffffffffffffffffffff038211156123a7576123a66125aa565b5b828201905092915050565b60006123bd82612481565b91506123c883612481565b9250826123d8576123d76125d9565b5b828204905092915050565b60006123ee82612481565b91506123f983612481565b92508282101561240c5761240b6125aa565b5b828203905092915050565b600061242282612461565b9050919050565b60008115159050919050565b60007fffffffff0000000000000000000000000000000000000000000000000000000082169050919050565b600073ffffffffffffffffffffffffffffffffffffffff82169050919050565b6000819050919050565b82818337600083830152505050565b60005b838110156124b857808201518184015260208101905061249d565b838111156124c7576000848401525b50505050565b600060028204905060018216806124e557607f821691505b602082108114156124f9576124f8612608565b5b50919050565b61250882612666565b810181811067ffffffffffffffff8211171561252757612526612637565b5b80604052505050565b600061253b82612481565b91507fffffffffffffffffffffffffffffffffffffffffffffffffffffffffffffffff82141561256e5761256d6125aa565b5b600182019050919050565b600061258482612481565b915061258f83612481565b92508261259f5761259e6125d9565b5b828206905092915050565b7f4e487b7100000000000000000000000000000000000000000000000000000000600052601160045260246000fd5b7f4e487b7100000000000000000000000000000000000000000000000000000000600052601260045260246000fd5b7f4e487b7100000000000000000000000000000000000000000000000000000000600052602260045260246000fd5b7f4e487b7100000000000000000000000000000000000000000000000000000000600052604160045260246000fd5b6000601f19601f8301169050919050565b7f4552433732313a207472616e7366657220746f206e6f6e20455243373231526560008201527f63656976657220696d706c656d656e7465720000000000000000000000000000602082015250565b7f4552433732313a20746f6b656e20616c7265616479206d696e74656400000000600082015250565b7f4552433732313a207472616e7366657220746f20746865207a65726f2061646460008201527f7265737300000000000000000000000000000000000000000000000000000000602082015250565b7f4552433732313a20617070726f766520746f2063616c6c657200000000000000600082015250565b7f4552433732313a206f70657261746f7220717565727920666f72206e6f6e657860008201527f697374656e7420746f6b656e0000000000000000000000000000000000000000602082015250565b7f4552433732313a20617070726f76652063616c6c6572206973206e6f74206f7760008201527f6e6572206e6f7220617070726f76656420666f7220616c6c0000000000000000602082015250565b7f4552433732313a2062616c616e636520717565727920666f7220746865207a6560008201527f726f206164647265737300000000000000000000000000000000000000000000602082015250565b7f4552433732313a206f776e657220717565727920666f72206e6f6e657869737460008201527f656e7420746f6b656e0000000000000000000000000000000000000000000000602082015250565b7f45524337323155524953746f726167653a2055524920736574206f66206e6f6e60008201527f6578697374656e7420746f6b656e000000000000000000000000000000000000602082015250565b7f4552433732313a206d696e7420746f20746865207a65726f2061646472657373600082015250565b7f45524337323155524953746f726167653a2055524920717565727920666f722060008201527f6e6f6e6578697374656e7420746f6b656e000000000000000000000000000000602082015250565b7f4552433732313a20617070726f76656420717565727920666f72206e6f6e657860008201527f697374656e7420746f6b656e0000000000000000000000000000000000000000602082015250565b7f4552433732313a207472616e73666572206f6620746f6b656e2074686174206960008201527f73206e6f74206f776e0000000000000000000000000000000000000000000000602082015250565b7f4552433732314d657461646174613a2055524920717565727920666f72206e6f60008201527f6e6578697374656e7420746f6b656e0000000000000000000000000000000000602082015250565b7f4552433732313a20617070726f76616c20746f2063757272656e74206f776e6560008201527f7200000000000000000000000000000000000000000000000000000000000000602082015250565b7f4552433732313a207472616e736665722063616c6c6572206973206e6f74206f60008201527f776e6572206e6f7220617070726f766564000000000000000000000000000000602082015250565b612afe81612417565b8114612b0957600080fd5b50565b612b1581612429565b8114612b2057600080fd5b50565b612b2c81612435565b8114612b3757600080fd5b50565b612b4381612481565b8114612b4e57600080fd5b5056fea2646970667358221220a1500052751c431aa27cf993fe81182df697b08df31d732138463160745e355964736f6c63430008030033",
  "immutableReferences": {},
  "source": "// SPDX-License-Identifier: MIT OR Apache-2.0\npragma solidity >=0.6.0 <0.9.0;\n\nimport \"@openzeppelin/contracts/utils/Counters.sol\";\nimport \"@openzeppelin/contracts/token/ERC721/extensions/ERC721URIStorage.sol\";\nimport \"@openzeppelin/contracts/token/ERC721/ERC721.sol\";\n\n\ncontract NFT is ERC721URIStorage {\n    using Counters for Counters.Counter;\n    Counters.Counter private _tokenIds;\n    address contractAddress;\n\n    constructor(address marketplaceAddress) ERC721(\"PawnWars\", \"PAWN\") {\n        contractAddress = marketplaceAddress;\n    }\n\n    function createToken(string memory tokenURI) public returns (uint) {\n        _tokenIds.increment();\n        uint256 newItemId = _tokenIds.current();\n\n        _mint(msg.sender, newItemId);\n        _setTokenURI(newItemId, tokenURI);\n        setApprovalForAll(contractAddress, true);\n        return newItemId;\n    }\n}",
  "sourcePath": "/Volumes/FAST/GitHub/Pawn Wars/gambit/dapp/contracts/NFT.sol",
  "compiler": {
    "name": "solc",
    "version": "0.8.3+commit.8d00100c.Emscripten.clang"
  },
  "schemaVersion": "3.4.3",
  "updatedAt": "2021-12-15T03:41:02.424Z",
  "networkType": "ethereum",
  "devdoc": {
    "kind": "dev",
    "methods": {
      "approve(address,uint256)": {
        "details": "See {IERC721-approve}."
      },
      "balanceOf(address)": {
        "details": "See {IERC721-balanceOf}."
      },
      "getApproved(uint256)": {
        "details": "See {IERC721-getApproved}."
      },
      "isApprovedForAll(address,address)": {
        "details": "See {IERC721-isApprovedForAll}."
      },
      "name()": {
        "details": "See {IERC721Metadata-name}."
      },
      "ownerOf(uint256)": {
        "details": "See {IERC721-ownerOf}."
      },
      "safeTransferFrom(address,address,uint256)": {
        "details": "See {IERC721-safeTransferFrom}."
      },
      "safeTransferFrom(address,address,uint256,bytes)": {
        "details": "See {IERC721-safeTransferFrom}."
      },
      "setApprovalForAll(address,bool)": {
        "details": "See {IERC721-setApprovalForAll}."
      },
      "supportsInterface(bytes4)": {
        "details": "See {IERC165-supportsInterface}."
      },
      "symbol()": {
        "details": "See {IERC721Metadata-symbol}."
      },
      "tokenURI(uint256)": {
        "details": "See {IERC721Metadata-tokenURI}."
      },
      "transferFrom(address,address,uint256)": {
        "details": "See {IERC721-transferFrom}."
      }
    },
    "version": 1
  },
  "userdoc": {
    "kind": "user",
    "methods": {},
    "version": 1
  }
}