{
  "contractName": "PawnWars",
  "abi": [
    {
      "anonymous": false,
      "inputs": [
        {
          "indexed": true,
          "internalType": "uint256",
          "name": "itemId",
          "type": "uint256"
        },
        {
          "indexed": true,
          "internalType": "address",
          "name": "nftContract",
          "type": "address"
        },
        {
          "indexed": true,
          "internalType": "uint256",
          "name": "tokenId",
          "type": "uint256"
        },
        {
          "indexed": false,
          "internalType": "address",
          "name": "seller",
          "type": "address"
        },
        {
          "indexed": false,
          "internalType": "address",
          "name": "owner",
          "type": "address"
        },
        {
          "indexed": false,
          "internalType": "uint256",
          "name": "price",
          "type": "uint256"
        },
        {
          "indexed": false,
          "internalType": "bool",
          "name": "sold",
          "type": "bool"
        }
      ],
      "name": "MarketItemCreated",
      "type": "event"
    },
    {
      "inputs": [
        {
          "internalType": "address",
          "name": "nftContract",
          "type": "address"
        },
        {
          "internalType": "uint256",
          "name": "tokenId",
          "type": "uint256"
        },
        {
          "internalType": "uint256",
          "name": "price",
          "type": "uint256"
        }
      ],
      "name": "createMarketItem",
      "outputs": [],
      "stateMutability": "payable",
      "type": "function",
      "payable": true
    },
    {
      "inputs": [
        {
          "internalType": "address",
          "name": "nftContract",
          "type": "address"
        },
        {
          "internalType": "uint256",
          "name": "itemId",
          "type": "uint256"
        }
      ],
      "name": "createMarketSale",
      "outputs": [],
      "stateMutability": "payable",
      "type": "function",
      "payable": true
    },
    {
      "inputs": [],
      "name": "fetchItemsCreated",
      "outputs": [
        {
          "components": [
            {
              "internalType": "uint256",
              "name": "itemId",
              "type": "uint256"
            },
            {
              "internalType": "address",
              "name": "nftContract",
              "type": "address"
            },
            {
              "internalType": "uint256",
              "name": "tokenId",
              "type": "uint256"
            },
            {
              "internalType": "address payable",
              "name": "seller",
              "type": "address"
            },
            {
              "internalType": "address payable",
              "name": "owner",
              "type": "address"
            },
            {
              "internalType": "uint256",
              "name": "price",
              "type": "uint256"
            },
            {
              "internalType": "bool",
              "name": "sold",
              "type": "bool"
            }
          ],
          "internalType": "struct PawnWarsMarket.MarketItem[]",
          "name": "",
          "type": "tuple[]"
        }
      ],
      "stateMutability": "view",
      "type": "function",
      "constant": true
    },
    {
      "inputs": [],
      "name": "fetchMarketItems",
      "outputs": [
        {
          "components": [
            {
              "internalType": "uint256",
              "name": "itemId",
              "type": "uint256"
            },
            {
              "internalType": "address",
              "name": "nftContract",
              "type": "address"
            },
            {
              "internalType": "uint256",
              "name": "tokenId",
              "type": "uint256"
            },
            {
              "internalType": "address payable",
              "name": "seller",
              "type": "address"
            },
            {
              "internalType": "address payable",
              "name": "owner",
              "type": "address"
            },
            {
              "internalType": "uint256",
              "name": "price",
              "type": "uint256"
            },
            {
              "internalType": "bool",
              "name": "sold",
              "type": "bool"
            }
          ],
          "internalType": "struct PawnWarsMarket.MarketItem[]",
          "name": "",
          "type": "tuple[]"
        }
      ],
      "stateMutability": "view",
      "type": "function",
      "constant": true
    },
    {
      "inputs": [],
      "name": "fetchMyNFTs",
      "outputs": [
        {
          "components": [
            {
              "internalType": "uint256",
              "name": "itemId",
              "type": "uint256"
            },
            {
              "internalType": "address",
              "name": "nftContract",
              "type": "address"
            },
            {
              "internalType": "uint256",
              "name": "tokenId",
              "type": "uint256"
            },
            {
              "internalType": "address payable",
              "name": "seller",
              "type": "address"
            },
            {
              "internalType": "address payable",
              "name": "owner",
              "type": "address"
            },
            {
              "internalType": "uint256",
              "name": "price",
              "type": "uint256"
            },
            {
              "internalType": "bool",
              "name": "sold",
              "type": "bool"
            }
          ],
          "internalType": "struct PawnWarsMarket.MarketItem[]",
          "name": "",
          "type": "tuple[]"
        }
      ],
      "stateMutability": "view",
      "type": "function",
      "constant": true
    },
    {
      "inputs": [],
      "name": "fund",
      "outputs": [
        {
          "internalType": "uint256",
          "name": "",
          "type": "uint256"
        }
      ],
      "stateMutability": "view",
      "type": "function",
      "constant": true
    },
    {
      "inputs": [],
      "name": "getListingPrice",
      "outputs": [
        {
          "internalType": "uint256",
          "name": "",
          "type": "uint256"
        }
      ],
      "stateMutability": "view",
      "type": "function",
      "constant": true
    },
    {
      "inputs": [
        {
          "internalType": "string",
          "name": "roomID",
          "type": "string"
        }
      ],
      "name": "setid",
      "outputs": [],
      "stateMutability": "nonpayable",
      "type": "function"
    },
    {
      "inputs": [
        {
          "internalType": "string",
          "name": "roomID",
          "type": "string"
        }
      ],
      "name": "getid",
      "outputs": [
        {
          "internalType": "uint256",
          "name": "",
          "type": "uint256"
        }
      ],
      "stateMutability": "view",
      "type": "function",
      "constant": true
    },
    {
      "inputs": [
        {
          "internalType": "uint256",
          "name": "ID",
          "type": "uint256"
        }
      ],
      "name": "createPlayer",
      "outputs": [],
      "stateMutability": "payable",
      "type": "function",
      "payable": true
    },
    {
      "inputs": [
        {
          "internalType": "uint256",
          "name": "ID",
          "type": "uint256"
        }
      ],
      "name": "TotalBet",
      "outputs": [
        {
          "internalType": "uint256",
          "name": "",
          "type": "uint256"
        }
      ],
      "stateMutability": "view",
      "type": "function",
      "constant": true
    },
    {
      "inputs": [
        {
          "internalType": "uint256",
          "name": "ID",
          "type": "uint256"
        },
        {
          "internalType": "address",
          "name": "player",
          "type": "address"
        }
      ],
      "name": "Winner",
      "outputs": [],
      "stateMutability": "nonpayable",
      "type": "function"
    },
    {
      "inputs": [
        {
          "internalType": "address",
          "name": "player",
          "type": "address"
        }
      ],
      "name": "getBet",
      "outputs": [
        {
          "internalType": "uint256",
          "name": "",
          "type": "uint256"
        }
      ],
      "stateMutability": "view",
      "type": "function",
      "constant": true
    },
    {
      "inputs": [
        {
          "internalType": "uint256",
          "name": "ID",
          "type": "uint256"
        }
      ],
      "name": "Draw",
      "outputs": [],
      "stateMutability": "nonpayable",
      "type": "function"
    }
  ],
  "bytecode": "0x60806040526658d15e17628000600455600a600655600060075534801561002557600080fd5b50600160008190555033600360006101000a81548173ffffffffffffffffffffffffffffffffffffffff021916908373ffffffffffffffffffffffffffffffffffffffff1602179055506127d78061007e6000396000f3fe6080604052600436106100dd5760003560e01c8063b60d42881161007f578063c860165411610059578063c86016541461027e578063dbfb6b54146102bb578063f064c32e146102d7578063f7566b4914610302576100dd565b8063b60d42881461020e578063c23b139e14610239578063c24d443a14610255576100dd565b80633fd10e0b116100bb5780633fd10e0b146101635780634c93703b1461018c57806358eb2df5146101c95780636b5936f5146101e5576100dd565b80630f08efe0146100e257806312e855851461010d578063202e374014610138575b600080fd5b3480156100ee57600080fd5b506100f761033f565b604051610104919061228b565b60405180910390f35b34801561011957600080fd5b50610122610655565b60405161012f919061232d565b60405180910390f35b34801561014457600080fd5b5061014d61065f565b60405161015a919061228b565b60405180910390f35b34801561016f57600080fd5b5061018a60048036038101906101859190611ed3565b6109f9565b005b34801561019857600080fd5b506101b360048036038101906101ae9190611e92565b610c6e565b6040516101c0919061232d565b60405180910390f35b6101e360048036038101906101de9190611e43565b610c96565b005b3480156101f157600080fd5b5061020c60048036038101906102079190611efc565b610ffa565b005b34801561021a57600080fd5b506102236111e0565b604051610230919061232d565b60405180910390f35b610253600480360381019061024e9190611e07565b6111e6565b005b34801561026157600080fd5b5061027c60048036038101906102779190611e92565b61149f565b005b34801561028a57600080fd5b506102a560048036038101906102a09190611ed3565b61152e565b6040516102b2919061232d565b60405180910390f35b6102d560048036038101906102d09190611ed3565b6116ec565b005b3480156102e357600080fd5b506102ec6117d6565b6040516102f9919061228b565b60405180910390f35b34801561030e57600080fd5b5061032960048036038101906103249190611dde565b611b70565b604051610336919061232d565b60405180910390f35b6060600061034d6001611bb9565b9050600061035b6002611bb9565b6103656001611bb9565b61036f9190612469565b90506000808267ffffffffffffffff8111156103b4577f4e487b7100000000000000000000000000000000000000000000000000000000600052604160045260246000fd5b6040519080825280602002602001820160405280156103ed57816020015b6103da611c28565b8152602001906001900390816103d25790505b50905060005b8481101561064a57600073ffffffffffffffffffffffffffffffffffffffff16600560006001846104249190612413565b815260200190815260200160002060040160009054906101000a900473ffffffffffffffffffffffffffffffffffffffff1673ffffffffffffffffffffffffffffffffffffffff1614156106375760006001826104819190612413565b90506000600560008381526020019081526020016000209050806040518060e0016040529081600082015481526020016001820160009054906101000a900473ffffffffffffffffffffffffffffffffffffffff1673ffffffffffffffffffffffffffffffffffffffff1673ffffffffffffffffffffffffffffffffffffffff168152602001600282015481526020016003820160009054906101000a900473ffffffffffffffffffffffffffffffffffffffff1673ffffffffffffffffffffffffffffffffffffffff1673ffffffffffffffffffffffffffffffffffffffff1681526020016004820160009054906101000a900473ffffffffffffffffffffffffffffffffffffffff1673ffffffffffffffffffffffffffffffffffffffff1673ffffffffffffffffffffffffffffffffffffffff168152602001600582015481526020016006820160009054906101000a900460ff16151515158152505084868151811061061a577f4e487b7100000000000000000000000000000000000000000000000000000000600052603260045260246000fd5b60200260200101819052506001856106329190612413565b945050505b80806106429061259c565b9150506103f3565b508094505050505090565b6000600454905090565b6060600061066d6001611bb9565b905060008060005b83811015610716573373ffffffffffffffffffffffffffffffffffffffff16600560006001846106a59190612413565b815260200190815260200160002060040160009054906101000a900473ffffffffffffffffffffffffffffffffffffffff1673ffffffffffffffffffffffffffffffffffffffff161415610703576001836107009190612413565b92505b808061070e9061259c565b915050610675565b5060008267ffffffffffffffff811115610759577f4e487b7100000000000000000000000000000000000000000000000000000000600052604160045260246000fd5b60405190808252806020026020018201604052801561079257816020015b61077f611c28565b8152602001906001900390816107775790505b50905060005b848110156109ee573373ffffffffffffffffffffffffffffffffffffffff16600560006001846107c89190612413565b815260200190815260200160002060040160009054906101000a900473ffffffffffffffffffffffffffffffffffffffff1673ffffffffffffffffffffffffffffffffffffffff1614156109db5760006001826108259190612413565b90506000600560008381526020019081526020016000209050806040518060e0016040529081600082015481526020016001820160009054906101000a900473ffffffffffffffffffffffffffffffffffffffff1673ffffffffffffffffffffffffffffffffffffffff1673ffffffffffffffffffffffffffffffffffffffff168152602001600282015481526020016003820160009054906101000a900473ffffffffffffffffffffffffffffffffffffffff1673ffffffffffffffffffffffffffffffffffffffff1673ffffffffffffffffffffffffffffffffffffffff1681526020016004820160009054906101000a900473ffffffffffffffffffffffffffffffffffffffff1673ffffffffffffffffffffffffffffffffffffffff1673ffffffffffffffffffffffffffffffffffffffff168152602001600582015481526020016006820160009054906101000a900460ff1615151515815250508486815181106109be577f4e487b7100000000000000000000000000000000000000000000000000000000600052603260045260246000fd5b60200260200101819052506001856109d69190612413565b945050505b80806109e69061259c565b915050610798565b508094505050505090565b6000600a600083815260200190815260200160002090506000600882604051610a2291906121f8565b9081526020016040518091039020600081548110610a69577f4e487b7100000000000000000000000000000000000000000000000000000000600052603260045260246000fd5b9060005260206000200160009054906101000a900473ffffffffffffffffffffffffffffffffffffffff1690506000600654610b25600885604051610aae91906121f8565b9081526020016040518091039020600081548110610af5577f4e487b7100000000000000000000000000000000000000000000000000000000600052603260045260246000fd5b9060005260206000200160009054906101000a900473ffffffffffffffffffffffffffffffffffffffff16611b70565b610b2f9190612469565b90506000600884604051610b4391906121f8565b9081526020016040518091039020600181548110610b8a577f4e487b7100000000000000000000000000000000000000000000000000000000600052603260045260246000fd5b9060005260206000200160009054906101000a900473ffffffffffffffffffffffffffffffffffffffff1690506000600654610c46600887604051610bcf91906121f8565b9081526020016040518091039020600181548110610c16577f4e487b7100000000000000000000000000000000000000000000000000000000600052603260045260246000fd5b9060005260206000200160009054906101000a900473ffffffffffffffffffffffffffffffffffffffff16611b70565b610c509190612469565b9050610c5c8484611bc7565b610c668282611bc7565b505050505050565b6000600b82604051610c8091906121e1565b9081526020016040518091039020549050919050565b60026000541415610cdc576040517f08c379a0000000000000000000000000000000000000000000000000000000008152600401610cd3906122ed565b60405180910390fd5b600260008190555060008111610d27576040517f08c379a0000000000000000000000000000000000000000000000000000000008152600401610d1e9061230d565b60405180910390fd5b6004543414610d6b576040517f08c379a0000000000000000000000000000000000000000000000000000000008152600401610d62906122cd565b60405180910390fd5b610d756001611c12565b6000610d816001611bb9565b90506040518060e001604052808281526020018573ffffffffffffffffffffffffffffffffffffffff1681526020018481526020013373ffffffffffffffffffffffffffffffffffffffff168152602001600073ffffffffffffffffffffffffffffffffffffffff16815260200183815260200160001515815250600560008381526020019081526020016000206000820151816000015560208201518160010160006101000a81548173ffffffffffffffffffffffffffffffffffffffff021916908373ffffffffffffffffffffffffffffffffffffffff1602179055506040820151816002015560608201518160030160006101000a81548173ffffffffffffffffffffffffffffffffffffffff021916908373ffffffffffffffffffffffffffffffffffffffff16021790555060808201518160040160006101000a81548173ffffffffffffffffffffffffffffffffffffffff021916908373ffffffffffffffffffffffffffffffffffffffff16021790555060a0820151816005015560c08201518160060160006101000a81548160ff0219169083151502179055509050508373ffffffffffffffffffffffffffffffffffffffff166323b872dd3330866040518463ffffffff1660e01b8152600401610f629392919061220f565b600060405180830381600087803b158015610f7c57600080fd5b505af1158015610f90573d6000803e3d6000fd5b50505050828473ffffffffffffffffffffffffffffffffffffffff16827f045dfa01dcba2b36aba1d3dc4a874f4b0c5d2fbeb8d2c4b34a7d88c8d8f929d1336000876000604051610fe49493929190612246565b60405180910390a4506001600081905550505050565b6000600a60008481526020019081526020016000209050600060088260405161102391906121f8565b9081526020016040518091039020805490509050600080600090505b82811015611192578473ffffffffffffffffffffffffffffffffffffffff1660088560405161106e91906121f8565b908152602001604051809103902082815481106110b4577f4e487b7100000000000000000000000000000000000000000000000000000000600052603260045260246000fd5b9060005260206000200160009054906101000a900473ffffffffffffffffffffffffffffffffffffffff1673ffffffffffffffffffffffffffffffffffffffff16141561117f5760088460405161110b91906121f8565b90815260200160405180910390208181548110611151577f4e487b7100000000000000000000000000000000000000000000000000000000600052603260045260246000fd5b9060005260206000200160009054906101000a900473ffffffffffffffffffffffffffffffffffffffff1691505b808061118a9061259c565b91505061103f565b5060006006546111a18761152e565b6111ab9190612469565b90506000819050600654600760008282546111c69190612413565b925050819055506111d78382611bc7565b50505050505050565b60075481565b6002600054141561122c576040517f08c379a0000000000000000000000000000000000000000000000000000000008152600401611223906122ed565b60405180910390fd5b60026000819055506000600560008381526020019081526020016000206005015490506000600560008481526020019081526020016000206002015490508134146112ac576040517f08c379a00000000000000000000000000000000000000000000000000000000081526004016112a3906122ad565b60405180910390fd5b6005600084815260200190815260200160002060030160009054906101000a900473ffffffffffffffffffffffffffffffffffffffff1673ffffffffffffffffffffffffffffffffffffffff166108fc349081150290604051600060405180830381858888f19350505050158015611328573d6000803e3d6000fd5b508373ffffffffffffffffffffffffffffffffffffffff166323b872dd3033846040518463ffffffff1660e01b81526004016113669392919061220f565b600060405180830381600087803b15801561138057600080fd5b505af1158015611394573d6000803e3d6000fd5b50505050336005600085815260200190815260200160002060040160006101000a81548173ffffffffffffffffffffffffffffffffffffffff021916908373ffffffffffffffffffffffffffffffffffffffff16021790555060016005600085815260200190815260200160002060060160006101000a81548160ff0219169083151502179055506114266002611c12565b600360009054906101000a900473ffffffffffffffffffffffffffffffffffffffff1673ffffffffffffffffffffffffffffffffffffffff166108fc6004549081150290604051600060405180830381858888f19350505050158015611490573d6000803e3d6000fd5b50505060016000819055505050565b6000600b826040516114b191906121e1565b908152602001604051809103902054141561152b576001600c546114d59190612413565b600c8190555080600a6000600c5481526020019081526020016000209080519060200190611504929190611ca9565b50600c54600b8260405161151891906121e1565b9081526020016040518091039020819055505b50565b600080600a6000848152602001908152602001600020905060006009600060088460405161155c91906121f8565b90815260200160405180910390206000815481106115a3577f4e487b7100000000000000000000000000000000000000000000000000000000600052603260045260246000fd5b9060005260206000200160009054906101000a900473ffffffffffffffffffffffffffffffffffffffff1673ffffffffffffffffffffffffffffffffffffffff1673ffffffffffffffffffffffffffffffffffffffff16815260200190815260200160002054905060006009600060088560405161162191906121f8565b9081526020016040518091039020600181548110611668577f4e487b7100000000000000000000000000000000000000000000000000000000600052603260045260246000fd5b9060005260206000200160009054906101000a900473ffffffffffffffffffffffffffffffffffffffff1673ffffffffffffffffffffffffffffffffffffffff1673ffffffffffffffffffffffffffffffffffffffff168152602001908152602001600020549050600081836116de9190612413565b905080945050505050919050565b6000600a600083815260200190815260200160002090506000339050600034905060088360405161171d91906121f8565b9081526020016040518091039020829080600181540180825580915050600190039060005260206000200160009091909190916101000a81548173ffffffffffffffffffffffffffffffffffffffff021916908373ffffffffffffffffffffffffffffffffffffffff16021790555080600960008473ffffffffffffffffffffffffffffffffffffffff1673ffffffffffffffffffffffffffffffffffffffff1681526020019081526020016000208190555050505050565b606060006117e46001611bb9565b905060008060005b8381101561188d573373ffffffffffffffffffffffffffffffffffffffff166005600060018461181c9190612413565b815260200190815260200160002060030160009054906101000a900473ffffffffffffffffffffffffffffffffffffffff1673ffffffffffffffffffffffffffffffffffffffff16141561187a576001836118779190612413565b92505b80806118859061259c565b9150506117ec565b5060008267ffffffffffffffff8111156118d0577f4e487b7100000000000000000000000000000000000000000000000000000000600052604160045260246000fd5b60405190808252806020026020018201604052801561190957816020015b6118f6611c28565b8152602001906001900390816118ee5790505b50905060005b84811015611b65573373ffffffffffffffffffffffffffffffffffffffff166005600060018461193f9190612413565b815260200190815260200160002060030160009054906101000a900473ffffffffffffffffffffffffffffffffffffffff1673ffffffffffffffffffffffffffffffffffffffff161415611b5257600060018261199c9190612413565b90506000600560008381526020019081526020016000209050806040518060e0016040529081600082015481526020016001820160009054906101000a900473ffffffffffffffffffffffffffffffffffffffff1673ffffffffffffffffffffffffffffffffffffffff1673ffffffffffffffffffffffffffffffffffffffff168152602001600282015481526020016003820160009054906101000a900473ffffffffffffffffffffffffffffffffffffffff1673ffffffffffffffffffffffffffffffffffffffff1673ffffffffffffffffffffffffffffffffffffffff1681526020016004820160009054906101000a900473ffffffffffffffffffffffffffffffffffffffff1673ffffffffffffffffffffffffffffffffffffffff1673ffffffffffffffffffffffffffffffffffffffff168152602001600582015481526020016006820160009054906101000a900460ff161515151581525050848681518110611b35577f4e487b7100000000000000000000000000000000000000000000000000000000600052603260045260246000fd5b6020026020010181905250600185611b4d9190612413565b945050505b8080611b5d9061259c565b91505061190f565b508094505050505090565b6000600960008373ffffffffffffffffffffffffffffffffffffffff1673ffffffffffffffffffffffffffffffffffffffff168152602001908152602001600020549050919050565b600081600001549050919050565b8173ffffffffffffffffffffffffffffffffffffffff166108fc829081150290604051600060405180830381858888f19350505050158015611c0d573d6000803e3d6000fd5b505050565b6001816000016000828254019250508190555050565b6040518060e0016040528060008152602001600073ffffffffffffffffffffffffffffffffffffffff16815260200160008152602001600073ffffffffffffffffffffffffffffffffffffffff168152602001600073ffffffffffffffffffffffffffffffffffffffff168152602001600081526020016000151581525090565b828054611cb590612539565b90600052602060002090601f016020900481019282611cd75760008555611d1e565b82601f10611cf057805160ff1916838001178555611d1e565b82800160010185558215611d1e579182015b82811115611d1d578251825591602001919060010190611d02565b5b509050611d2b9190611d2f565b5090565b5b80821115611d48576000816000905550600101611d30565b5090565b6000611d5f611d5a8461236d565b612348565b905082815260208101848484011115611d7757600080fd5b611d828482856124f7565b509392505050565b600081359050611d9981612773565b92915050565b600082601f830112611db057600080fd5b8135611dc0848260208601611d4c565b91505092915050565b600081359050611dd88161278a565b92915050565b600060208284031215611df057600080fd5b6000611dfe84828501611d8a565b91505092915050565b60008060408385031215611e1a57600080fd5b6000611e2885828601611d8a565b9250506020611e3985828601611dc9565b9150509250929050565b600080600060608486031215611e5857600080fd5b6000611e6686828701611d8a565b9350506020611e7786828701611dc9565b9250506040611e8886828701611dc9565b9150509250925092565b600060208284031215611ea457600080fd5b600082013567ffffffffffffffff811115611ebe57600080fd5b611eca84828501611d9f565b91505092915050565b600060208284031215611ee557600080fd5b6000611ef384828501611dc9565b91505092915050565b60008060408385031215611f0f57600080fd5b6000611f1d85828601611dc9565b9250506020611f2e85828601611d8a565b9150509250929050565b6000611f448383612135565b60e08301905092915050565b611f59816124af565b82525050565b611f688161249d565b82525050565b611f778161249d565b82525050565b6000611f88826123c3565b611f9281856123e6565b9350611f9d8361239e565b8060005b83811015611fce578151611fb58882611f38565b9750611fc0836123d9565b925050600181019050611fa1565b5085935050505092915050565b611fe4816124c1565b82525050565b611ff3816124c1565b82525050565b6000612004826123ce565b61200e8185612408565b935061201e818560208601612506565b80840191505092915050565b6000815461203781612539565b6120418186612408565b9450600182166000811461205c576001811461206d576120a0565b60ff198316865281860193506120a0565b612076856123ae565b60005b8381101561209857815481890152600182019150602081019050612079565b838801955050505b50505092915050565b60006120b66040836123f7565b91506120c182612683565b604082019050919050565b60006120d96024836123f7565b91506120e4826126d2565b604082019050919050565b60006120fc601f836123f7565b915061210782612721565b602082019050919050565b600061211f601c836123f7565b915061212a8261274a565b602082019050919050565b60e08201600082015161214b60008501826121c3565b50602082015161215e6020850182611f5f565b50604082015161217160408501826121c3565b5060608201516121846060850182611f50565b5060808201516121976080850182611f50565b5060a08201516121aa60a08501826121c3565b5060c08201516121bd60c0850182611fdb565b50505050565b6121cc816124ed565b82525050565b6121db816124ed565b82525050565b60006121ed8284611ff9565b915081905092915050565b6000612204828461202a565b915081905092915050565b60006060820190506122246000830186611f6e565b6122316020830185611f6e565b61223e60408301846121d2565b949350505050565b600060808201905061225b6000830187611f6e565b6122686020830186611f6e565b61227560408301856121d2565b6122826060830184611fea565b95945050505050565b600060208201905081810360008301526122a58184611f7d565b905092915050565b600060208201905081810360008301526122c6816120a9565b9050919050565b600060208201905081810360008301526122e6816120cc565b9050919050565b60006020820190508181036000830152612306816120ef565b9050919050565b6000602082019050818103600083015261232681612112565b9050919050565b600060208201905061234260008301846121d2565b92915050565b6000612352612363565b905061235e828261256b565b919050565b6000604051905090565b600067ffffffffffffffff82111561238857612387612643565b5b61239182612672565b9050602081019050919050565b6000819050602082019050919050565b60008190508160005260206000209050919050565b600081519050919050565b600081519050919050565b6000602082019050919050565b600082825260208201905092915050565b600082825260208201905092915050565b600081905092915050565b600061241e826124ed565b9150612429836124ed565b9250827fffffffffffffffffffffffffffffffffffffffffffffffffffffffffffffffff0382111561245e5761245d6125e5565b5b828201905092915050565b6000612474826124ed565b915061247f836124ed565b925082821015612492576124916125e5565b5b828203905092915050565b60006124a8826124cd565b9050919050565b60006124ba826124cd565b9050919050565b60008115159050919050565b600073ffffffffffffffffffffffffffffffffffffffff82169050919050565b6000819050919050565b82818337600083830152505050565b60005b83811015612524578082015181840152602081019050612509565b83811115612533576000848401525b50505050565b6000600282049050600182168061255157607f821691505b6020821081141561256557612564612614565b5b50919050565b61257482612672565b810181811067ffffffffffffffff8211171561259357612592612643565b5b80604052505050565b60006125a7826124ed565b91507fffffffffffffffffffffffffffffffffffffffffffffffffffffffffffffffff8214156125da576125d96125e5565b5b600182019050919050565b7f4e487b7100000000000000000000000000000000000000000000000000000000600052601160045260246000fd5b7f4e487b7100000000000000000000000000000000000000000000000000000000600052602260045260246000fd5b7f4e487b7100000000000000000000000000000000000000000000000000000000600052604160045260246000fd5b6000601f19601f8301169050919050565b7f506c65617365207375626d6974207468652061736b696e67207072696365206960008201527f6e206f7264657220746f20636f6d706c65746520746865207075726368617365602082015250565b7f5072696365206d75737420626520657175616c20746f206c697374696e67207060008201527f7269636500000000000000000000000000000000000000000000000000000000602082015250565b7f5265656e7472616e637947756172643a207265656e7472616e742063616c6c00600082015250565b7f5072696365206d757374206265206174206c6561737420312077656900000000600082015250565b61277c8161249d565b811461278757600080fd5b50565b612793816124ed565b811461279e57600080fd5b5056fea2646970667358221220963713624118f8c2015c972f61f4dd90b0cbd48857c06469dd41906f6277430764736f6c63430008030033",
  "immutableReferences": {},
  "source": "// SPDX-License-Identifier: MIT\npragma solidity >=0.6.0 <0.9.0;\n\nimport \"./Market.sol\";\n\ncontract PawnWars is PawnWarsMarket {\n    // Storing the commission as 5000 Wei\n\n    uint256 private commission = 10 wei;\n\n    /// Game fund obtained form commision\n    uint256 public fund = 0;\n\n    // Created a Mapping Game which maps from string to address array\n\n    mapping(string => address[]) private Game;\n\n    // Created Mapping BetAmt which maps from adddress to uint\n    // It maps from address of player to bet amount\n\n    mapping(address => uint256) private BetAmt;\n\n    // Created Mapping to store the unique id vs room id string\n\n    mapping(uint256 => string) private RoomIDMap;\n\n    // Created Mapping to store the room id string vs unique id\n\n    mapping(string => uint256) private IDRoomMap;\n\n    // Set a Unique ID\n\n    uint256 private uniqueid;\n\n    // event SetID(\n    //     bool status\n    // );\n\n    // Set the mappings with room id string vs unique id and unique id vs room id string\n\n    function setid(string memory roomID) public {\n        // If the room ID already exists in the mapping then it will not create a new one\n        if (IDRoomMap[roomID] == 0) {\n            uniqueid = uniqueid + 1;\n            RoomIDMap[uniqueid] = roomID;\n            IDRoomMap[roomID] = uniqueid;\n        }\n        // emit SetID(true);\n    }\n\n    // Get Function which returns the unique id for given string id\n\n    function getid(string memory roomID) public view returns (uint256) {\n        return IDRoomMap[roomID];\n    }\n\n    // event SuccessDeposit(\n    //     address sender,\n    //     uint betAmount,\n    //     string roomId\n    // );\n\n    // Function which accept a payment from the user and creates a user\n\n    function createPlayer(uint256 ID) external payable {\n        string storage RoomID = RoomIDMap[ID];\n        address sender = msg.sender;\n        uint256 betamount = msg.value;\n        Game[RoomID].push(sender);\n        BetAmt[sender] = betamount;\n        // emit SuccessDeposit(sender, betamount, RoomID);\n    }\n\n    // Function to send the bet amount to the winner\n\n    function sendBetAmt(address payable winner, uint256 bettedAmt) private {\n        winner.transfer(bettedAmt);\n    }\n\n    // Calculate the Total Bet Amount\n\n    function TotalBet(uint256 ID) public view returns (uint256) {\n        string storage RoomID = RoomIDMap[ID];\n        uint256 Bet0 = BetAmt[Game[RoomID][0]];\n        uint256 Bet1 = BetAmt[Game[RoomID][1]];\n        uint256 total = Bet0 + Bet1;\n        return total;\n    }\n\n    // event GameWon(\n    //     address winner,\n    //     uint amount,\n    //     uint index\n\n    // );\n    // Function to take the winner index as input\n    // It calculates the Winner address and send total bet to the person\n\n    function Winner(uint256 ID, address player) external {\n        string storage RoomID = RoomIDMap[ID];\n        uint256 plength = Game[RoomID].length;\n        address payable winner_address;\n        for (uint256 i = 0; i < plength; i++) {\n            if (Game[RoomID][i] == player) {\n                winner_address = payable(Game[RoomID][i]);\n            }\n        }\n        uint256 amount = (TotalBet(ID) - commission);\n        uint256 totalBet = amount;\n        fund += commission;\n        sendBetAmt(winner_address, totalBet);\n        // emit GameWon(winner_address, totalBet, index);\n    }\n\n    // Function for Get Bet Amount By Address\n\n    function getBet(address player) public view returns (uint256) {\n        return BetAmt[player];\n    }\n\n    // event GameDraw(\n    //     bool status\n    // );\n\n    // Function to send money to both players if it is draw game\n\n    function Draw(uint256 ID) external {\n        string storage RoomID = RoomIDMap[ID];\n        address payable player0_address = payable(Game[RoomID][0]);\n        uint256 bet0 = getBet(Game[RoomID][0]) - commission;\n        address payable player1_address = payable(Game[RoomID][1]);\n        uint256 bet1 = getBet(Game[RoomID][1]) - commission;\n        sendBetAmt(player0_address, bet0);\n        sendBetAmt(player1_address, bet1);\n        // emit GameDraw(true);\n    }\n}\n",
  "sourcePath": "/Volumes/FAST/GitHub/Pawn Wars/gambit/dapp/contracts/PawnWars.sol",
  "compiler": {
    "name": "solc",
    "version": "0.8.3+commit.8d00100c.Emscripten.clang"
  },
  "schemaVersion": "3.4.3",
  "updatedAt": "2021-12-13T17:12:09.398Z",
  "networkType": "ethereum",
  "devdoc": {
    "kind": "dev",
    "methods": {},
    "version": 1
  },
  "userdoc": {
    "kind": "user",
    "methods": {
      "fund()": {
        "notice": "Game fund obtained form commision"
      }
    },
    "version": 1
  }
}